:020000022000DC
:1070000000000420757302005D7302005F730200CC
:1070100061730200637302006573020000000000E8
:107020000000000000000000000000006773020084
:1070300069730200000000006B7302006D730200B0
:1070400081CA02006F73020011B002006F73020068
:107050006F7302006F73020091AE02006F73020043
:107060006F7302006DB102006F7302006F73020054
:107070006F7302006F7302006F7302006F73020080
:107080006F730200458402006F7302006F73020089
:107090006F7302006F73020061D702006F7302000A
:1070A0006F7302006F7302006F7302006F73020050
:1070B0006F7302006F730200000000000000000008
:1070C0006F7302006F7302006F7302006F73020030
:1070D0006F7302006F7302006F730200B5C4020089
:1070E0006F7302006F7302006F73020000000000F4
:1070F000000000006F730200000000006F730200C8
:10710000000000000000000000000000000000007F
:10711000000000000000000000000000000000006F
:10712000000000000000000000000000000000005F
:10713000000000000000000000000000000000004F
:10714000000000000000000000000000000000003F
:10715000000000000000000000000000000000002F
:10716000000000000000000000000000000000001F
:10717000000000000000000000000000000000000F
:1071800000000000000000000000000000000000FF
:1071900000000000000000000000000000000000EF
:1071A00000000000000000000000000000000000DF
:1071B00000000000000000000000000000000000CF
:1071C00000000000000000000000000000000000BF
:1071D00000000000000000000000000000000000AF
:1071E000000000000000000000000000000000009F
:1071F000000000000000000000000000000000008F
:10720000354936480A1A02D0072291438D4634493F
:1072100034480A1A06D00722914381F309880222D2
:1072200082F3148830483149314A00F044F831483B
:107230003149324A00F03FF831483249324A00F0D1
:107240003AF832483249334A00F035F83248334987
:10725000334A00F030F833483349344A00F02BF811
:1072600033483449344A00F026F83448344900227F
:1072700000F02CF833483449002200F027F8334856
:107280003349091A082902DB002202604160314AB1
:1072900090471F481F49884205D00268043003B454
:1072A000904703BCF7E700208646EC46002000210B
:1072B000294A9047FEE7884207D0521A05D0037842
:1072C00001300B700131013AF9D17047884202D088
:1072D00002700130FAE770470000042000E003204C
:1072E00000000420000004208C550300382A0020F0
:1072F0007C2A0020D0730200D073020028F902001B
:107300008C550300382A0020382A00204CFA02004D
:107310004CFA02004CFA02004CFA02004CFA02004D
:107320004CFA02004CFA02004CFA02008B550300A2
:10733000D05503007C2A00207C2A00207C2A0020D3
:1073400060570020605700206457002064570020D9
:10735000647700209D730200C5CD0200FEE7FEE7C2
:10736000FEE7FEE7FEE7FEE7FEE7FEE7FEE7FEE7F5
:1073700000F002B8FFF7FCBF0F484FF00701884349
:1073800085460E4880470E48016841F4700101604F
:10739000BFF34F8FBFF36F8FFFF732BF09480A4922
:1073A0000A4A884207D0521A05D0037801300B7080
:1073B0000131013AF9D170470000042025A90200EB
:1073C00088ED00E04CFA0200382A0020382A00201C
:1073D00000487047585700207047000007B5044B1D
:1073E0000093044A402300F032F803B05DF804FB38
:1073F000F97302007D2A00202DE9F84388461446DF
:10740000B2B10F4B0F4E0325002743F0010922466E
:1074100008EB0701002005F079FE0744241A48B95B
:1074200033782BB14FF47A40C847013D02D1357013
:10743000BDE8F88301233370002CE8D1F8E700BFE2
:1074400050FA02007C2A0020704705F093BEF0B588
:1074500095B01D46164608460C4601F083FB1A9B64
:107460000D93CDE9086500252B46082205A9204685
:107470000A958DF82C500C9501F091FB079B029317
:10748000069B03939DF814308DF8115003F003020E
:10749000012A1DD1BDF81420059DC3F3C203C2F318
:1074A00083168DF81030B20008230EA9204601F093
:1074B00076FBC5F3952508AB0093324602AB0EA9C7
:1074C000284600F0A7FB204601F050FB15B0F0BDA8
:1074D000022AF8D1BDF81650C3F3C203C5F38915CB
:1074E0008DF810300827082D2E4628BF08263B4669
:1074F00032460EA9204601F052FBAD1B08AB02AA92
:1075000031460EA8374400F0E9FB002DEBD1DAE755
:1075100008B5FFF79AFF0448042100F0E5FA034B91
:1075200001225A7108BD00BF3CFA0200382A00202F
:10753000037813F0040216D003F00303012B03D0E9
:10754000022B09D0012070470A6800880232C0F37C
:10755000831002440A60F5E70B684288023303EBAC
:1075600092130B60EEE71046704700002DE9F04FD4
:1075700087B000230446861C0DF107000F46154610
:107580008DF8073000F0F0FD404A5168396093688B
:1075900003F580735B1A924602F21C4702F5836979
:1075A00002F21448B3421AD30020002D69D004F02F
:1075B0000F039B0143F0050363F30F00DAF8043077
:1075C000DAB203321E444AF822009DF80700CAF8D6
:1075D000046000F0EDFD012007B0BDE8F08F01214F
:1075E000384600F0E4FF484601F007F8404601F055
:1075F00004F8DAF808000290C0B203300AEB800009
:1076000002A9FFF795FF029B30BBDAB20AEB8202B8
:10761000D16803919A1C0133DBB20AEB8303029217
:10762000D3F80CB001F00303012B22D0022B15D0AC
:107630008346404600F0E4FF10B1029BCAF80830D0
:107640005946384600F0B3FFDAF80830DAF804207B
:1076500003F580739B1AA5E7D8B2CEE7BDF80E30CC
:10766000C3F3891303334FEA1B4B02EB93030293DB
:10767000DFE7BDF80C30C3F383134FEA1B4B134411
:10768000F5E7A40544F0060098E700BF902B002022
:10769000064B074810B501221A7001F01CFA044687
:1076A00010B9044801F085FA204610BD902B002047
:1076B000F0F902008CFA020030B50A4C71B10A4AA6
:1076C0000A49121BD20800239A4201D1002030BD82
:1076D00031F82350854202D00133F5E7034654F8D0
:1076E0003300F4E738F90200F0F90200382A0020EC
:1076F000094B013903EBC000032909D8DFE801F089
:107700000A020406042070470079704740797047E8
:10771000002070470220704738F90200034BD3E97C
:107720000130C31A58425841704700BF902B0020C7
:107730002DE9F04186B0FFF7F1FF0546002840F043
:10774000E680744CC4F81804BFF34F8FA36802930B
:10775000DBB2033304EB830002A9FFF7E9FE029BCF
:1077600018B1D4F81824002A55D0DAB2991C013384
:1077700004EB8202DBB204EB8303D268DB68049380
:1077800002F00303022B039202914FD1BDF80E3099
:107790006148C3F38917502F3E4628BF502666F331
:1077A0008F1306F10801ADF80E3001F0ACF9054673
:1077B000002800F0978001F0D5F9002303A90822E2
:1077C000284601F0E2F90299CB43DBB20133C9B29A
:1077D0000331B6EB830F4FEA830804EB810122D912
:1077E00008234246A6EB0806284601F0CEF9F6B279
:1077F0004A4908F108033246284601F0C6F9029BBF
:10780000033703EB97070297D4F81834002B41D1C4
:10781000D4F8106451E062689A4299D8A260284670
:1078200006B0BDE8F08108233246E5E7012B59D1C7
:10783000BDF80C303848C3F38311062928BF062150
:1078400061F3891302318900ADF80C3001F05BF966
:107850000546002846D001F085F90023082203A937
:10786000284601F092F90026BDF80C20C2F38312DD
:10787000B300964203F10803C6D202994A1CC9B26A
:107880000331029204EB81010422284601F07DF9C4
:107890000136E9E7284601F069F9FFF73FFF80F07C
:1078A0000100C5B2BBE7F3685B7923B133682946B1
:1078B0001B6830469847F3681E68002EF3D12846AF
:1078C00001F054F90DF107008DF8076000F04CFC51
:1078D000D4F818340BB9029BA3609DF8070000F0A0
:1078E00067FCDAE7D4F8104454B90D4B0D480E4943
:1078F000C01AC008000440F0020000F05DF8CCE7B8
:10790000236820469B689847E3681C68ECE70025DD
:1079100085E700BF902B0020F0F902009C2B00208F
:1079200038F9020070F9020074FA02002DE9F347F9
:1079300004460E46924601A9012218469946FFF7D1
:1079400015FE1B4F10B3019D4FF00008AA1CC8453F
:1079500008EB020123D11748002100F005FE80F357
:107960001000000440EA1440E4006B1C04F03804EA
:10797000DBB2EDB244F0010407EB8303033544EAC4
:10798000881444EA8624D86047F825403B781BB128
:10799000FFF7CEFE0028FBD102B0BDE8F087C9B2E8
:1079A00007EB81015AF82830CB6008F10108CEE7D7
:1079B000902B0020AC2F002000231A46FFF7B6BF03
:1079C00007B50123019201AAFFF7B0FF03B05DF8EC
:1079D00004FB07B5CDE9002302236A46FFF7A6FFA3
:1079E00003B05DF804FB1FB5CDE90123069B0393AB
:1079F00001AA0323FFF79AFF05B05DF804FB1FB54A
:107A0000CDE90023069B0293079B03936A46042358
:107A1000FFF78CFF05B05DF804FB7FB5CDE90123CE
:107A2000089B0393099B04930A9B059301AA0523D2
:107A3000FFF77CFF07B05DF804FB00002DE9F7437A
:107A40000446D01C8846164601A900228008FFF78C
:107A50008DFD234D80B3019FB81C0190C0B2C0F5CD
:107A60008073B6EB830F00F103004FEA830905EB47
:107A700080002AD83246414607F08EFB1948002183
:107A800000F072FD80F310007B1CDBB2FFB2220C11
:107A900005EB8303033742EA0040E400D86004F0BA
:107AA000380455F8273044F0020444EA865203F4BF
:107AB0007C131A4345F827202B781BB1FFF738FEBB
:107AC0000028FBD103B0BDE8F0834A46414607F0E9
:107AD00063FBA6EB090208EB090105F10C00CBE7FB
:107AE000902B0020AC2F002030B50F49D1F8102486
:107AF00003460020144634B9DC6820714AB9C1F845
:107B00001034226030BDE4682579854206D02468AF
:107B1000F1E7D268116821601360F3E701300A28A9
:107B2000E8D14FF0FF30EDE7902B0020084A38B540
:107B30000123D2F8104413701D4604B938BDE36820
:107B40005D71236820465B689847E3681C68F4E72A
:107B5000902B002007B503460846197A052911D055
:107B60005B7A2BB1094A0A49019000F0ACFD0198FB
:107B70000849019000F0A7FD019803B05DF804EBFF
:107B800000F096BD002AF8D0F2E700BF98FA020094
:107B90009DFA0200D308030030B5C38885B00446BF
:107BA0000D4633B1144A00921449154A284600F094
:107BB0008AFD217A05291DD0637A4BB1A088FFF791
:107BC00097FD104B104953F82020284600F07BFD0C
:107BD000227A0E4BA08853F8222003920021FFF74F
:107BE0006BFD039A0A490346284605B0BDE83040BC
:107BF00000F069BD05B030BD98FA0200A8FA020095
:107C0000A0FA020024FB02009DFA020048FB0200D9
:107C1000C0FA02002DE9F04385B01F460C9D0023F9
:107C200095F80C902B7306460C469046294638462C
:107C3000FFF7B2FFB8F1060F09D8DFE808F0041229
:107C4000181F283340003146284600F03CFD002232
:107C500029463846FFF77EFF85F80C9005B0BDE851
:107C6000F08322683146284600F02DFDEFE7D4E985
:107C700000233146284600F026FDE8E7A36800937C
:107C80003146D4E90023284600F01DFDDFE7E36814
:107C90000193A36800933146D4E90023284600F0FD
:107CA00012FDD4E723690293E3680193A36800936C
:107CB0003146D4E90023284600F005FDC7E7636993
:107CC000039323690293E3680193A3680093314609
:107CD000D4E90023284600F0F6FCB8E708292DE98E
:107CE000F74F80460E4617461C463CD8002593F8B1
:107CF0000C901D7319461046FFF74EFFDFF888A061
:107D0000DFF888B0AE4231D918F805205946204630
:107D100000F0D9FC0135082DF4D11949194DDFF8CF
:107D200070A0204600F0CFFC4FF0000B5E4522D93A
:107D300018F80B207E2A05D81046019207F0B6F9F4
:107D4000019A00B92E225146204600F0BCFC0BF1EE
:107D5000010BBBF1080FE9D1012221463846FFF79C
:107D6000F9FE84F80C9003B0BDE8F08F5146204630
:107D700000F0A9FCCEE72946204600F0A4FCE6E787
:107D8000D4FA0200D2FA0200D0FA0200CAFA0200C3
:107D9000D6FA02001FB50021039001AA44F20100A7
:107DA000CDE9011100F004F805B05DF804FB000016
:107DB00010B572B6FFF7BAFEFFF7BAFC0028FBD188
:107DC000104B114C1149E41AE408240444F001005A
:107DD000FFF7F2FD0E4B1B68DB0700D500BE0D4917
:107DE00044F00200FFF7E8FDBFF34F8F0A490B4B49
:107DF000CA6802F4E0621343CB60BFF34F8F00BF49
:107E0000FDE700BF38F9020070F9020067FB0200CD
:107E1000F0ED00E073FB020000ED00E00400FA0565
:107E2000D0E90223D1E90201994208BF90422CBF58
:107E3000012000207047000008B50B4800F0EBFA65
:107E40000A4B0B49D3E900231218D1E9000143F191
:107E500000038B4208BF824203D212F1807243F1C9
:107E600000031046194608BD402A0020503000206B
:107E7000C830002037B505460C460A4801A900F075
:107E8000FEFA60B10570446001A9064800F021FBCC
:107E900018B1054800F0C4FA002003B030BD04203A
:107EA000FBE700BFB4300020402A002038B5184B53
:107EB0001B78044613B90025284638BD0028FAD09F
:107EC000037F03F0FF05002BF5D0FFF7B5FFD4E9E2
:107ED0000223994208BF904214D3236903B9237740
:107EE000D4E90530984721690029E4D0237F03F0C5
:107EF000FF05002BDFD0D4E90223521843F1000321
:107F0000C4E902230348214600F072FED4E700BF13
:107F10005830002090FB020013B5114B114918682E
:107F2000019008231048582200F096FA044698B9A8
:107F30000E4A0F4801A900F05FF9044660B90C48E9
:107F4000012100F04BFA01230A4A0948194600F0C2
:107F5000ADF9094B01221A70204602B010BD00BFD6
:107F60008AFB02005C300020B4300020D17F020088
:107F7000402A0020FFFF7F00583000203AB10368FC
:107F80005A614A1E51425141196100207047072031
:107F9000704738B5037F04460D4683B98261FFF709
:107FA0004BFF2369401941F10001C4E9020103B10B
:107FB000256121460020BDE83840FFF75BBF002067
:107FC00038BD0000014800F026BA00BF402A00205A
:107FD0002DE9F04F85B0804600F008FA40B15A4ACA
:107FE000D2E9003113F1807341F10001C2E900319F
:107FF0000021404600F009FA38B1544E336823B1ED
:108000003068FFF753FF002333600121404600F042
:10801000FCF920B1FFF710FF4D4BC3E900014D48BB
:108020004A4F4D4EDFF8389103A900F062FA00285C
:1080300045D1DFF82491454EDFF828A1484600F0ED
:10804000EDFD3368002875D07BB13368D0E90201BB
:10805000D3E90223994208BF90422DD233681B7F97
:108060001BB13168484600F0C3FD484600F0D0FD22
:10807000D0E902B307460193FFF7DEFE019BBBEB9D
:10808000000463EB0105012C75F1000345DBB4F539
:10809000350F40D3FFF796FF304A02444FF4960362
:1080A0000021504600F022F900283ED1336813B970
:1080B000404600F0F3F8376005B0BDE8F08F037874
:1080C000012B1DD0022B09D14FF0000A304600F0E1
:1080D0009FFD002834D080F81CA0F7E73BB9416829
:1080E0000B7F23B901230B77304600F081FD03A9F4
:1080F000184800F029FA03A9164800F0FAF996E7A3
:1081000041683B68994202D100233B60EFE730466B
:1081100000F087FDEBE7BA68C0E70021504600F0A9
:108120006AF93846FFF7C2FE01E00D28F9D00023B6
:10813000336083E7002BBFD1404600F0B3F8BBE7C4
:10814000012389F80030D2E750300020D0300020E1
:10815000C8300020B430002090FB0200FFFFB400C4
:1081600058300020402A002070B5EFF3108672B618
:108170000C4A946801239CB993600B4B0B4DD3F8C8
:10818000801029401160C3F88050D3F884105160EA
:108190004FF0FF32C3F88420047006B962B670BD98
:1081A0000370FAE7D430002000E100E0FC06FFBDD8
:1081B000084B9A6810B55AB150B9EFF3108172B6F6
:1081C000054A1C6814605C685460986001B962B626
:1081D00010BD00BFD430002000E100E0435882B061
:1081E0003BB10023435043580193019B012002B04F
:1081F00070471846FBE70000F8B5204B4479204D46
:1082000043F824201F4A204B05EBC4049B1A227913
:10821000DB081B0432B143F002001C49FFF7CCFB22
:108220000820F8BD02680C88C2F8084590F904607F
:108230008A7804795201002ED2B219DB14498F19C1
:1082400087F800230122760904F01F0402FA04F4DF
:1082500041F82640427905EBC201012445F832007D
:108260000C7143F003000B49FFF7A6FB0020D8E791
:10827000094904F00F040A55ECE700BFE83000207C
:10828000E030002038F9020080F902009CFB020077
:1082900000E100E0BEFB020014ED00E003680122F3
:1082A0001A607047036801225A60704773B501F184
:1082B0005005AD000068ADB24FF480348C4000260C
:1082C000C0F80843C0F84843465101F5A871455924
:1082D000019522F07F42019D40F82120C0F84443DF
:1082E0000BB1C0F8044302B070BD00002DE9F74F98
:1082F0000D4622F07F4402684FF4803705F15006A6
:108300008F408046B60002EB8500C2F84873B6B2D3
:10831000C2F80873D2F8041599464FF0000BD0F854
:108320004035C0F8401542F806B05B1A92590092E9
:1083300023F07F43012B009A4FEA850A0CD1264B8C
:108340004FF4806043F001039847D8F8003043F8B9
:1083500006B09B590193019BD8F80010D1F8046531
:10836000C1F84473A31B23F07F43012B1CD11A4B8C
:1083700005F5A875013443F0010341F825404FF499
:1083800080609847D8F80030D3F804359E4209D170
:10839000D8F800300020C3F84473C3F8047303B066
:1083A000BDE8F08F0D20FAE78A44C9F1FF13CAF83F
:1083B0004045D1F80405221A013A22F07F4203F524
:1083C0007F439342EED3002AE2D10134CAF84045FC
:1083D000D1F804359842DAE7D0FB020003680222A4
:1083E000C3F8442309B1C3F80423704700684FF46D
:1083F0008271FFF7F3BE4FF4803303FA01F1036893
:10840000C3F84813C3F80813704750318900006857
:1084100089B2FFF7E3BE0368D3F804057047000094
:1084200090F90430002B09DB5A09012103F01F03E6
:1084300001FA03F34032024941F82230704700BF8D
:1084400000E100E0024B034A1B681068184700BFB8
:10845000E8300020E030002010B561B1B2FBF3F449
:1084600003FB1424A4B244B9C0E9001484608281DF
:10847000C381204610BD0E20FCE70920FAE737B57E
:1084800050E8013F9DB2C48925448489A54228BF94
:108490002D1B0489A54202BFBFF32F8F002207E0E6
:1084A000C5EA030540E80154002CE9D14FF0010270
:1084B0008DF803200193019B9DF803200B6002F0CF
:1084C000FF0322B10B880068184403B030BD184682
:1084D000FBE70A884B889A4209D150E8012FC2EA8B
:1084E000024240E80123002BF7D101207047002011
:1084F000704737B550E8023F1FFAA3F5C488A5427C
:1085000002BFBFF32F8F00220DE0C4892544848968
:10851000A54228BF2D1BC3EA054540E80254002CA4
:10852000E8D14FF001028DF803200193019B9DF8E3
:1085300003200B6002F0FF0322B14B88006818444F
:1085400003B030BD1846FBE70A884B889A4209D130
:1085500050E8022FC2EA224240E80223002BF7D162
:10856000012070470020704710B5034653E8000F04
:108570000A4643E8002494F0000FF7D110BD10B56F
:10858000034653E8002F42EA010043E8000494F058
:10859000000FF6D110BD10B5034653E8000F00EAF6
:1085A000010243E8002494F0000FF6D110BD10B58D
:1085B000034653E8002F02EB010043E8000494F067
:1085C000000FF6D110BD10B5034653E8002FA2EB03
:1085D000010043E8000494F0000FF6D110BD10B57F
:1085E000034653E8002F8A422CBF501A104643E836
:1085F000000494F0000FF4D110BD0121FFF7BFBFBC
:108600000021FFF7C8BF10B590B1D0E90123016880
:108610009B1ADBB20A60013BDBB2FF2B026802D17E
:108620000020107110BD11684C1C14600B70F2E733
:108630000E20F7E737B5054600240DF107008DF849
:108640000740FFF791FD2A686B68116899420ED9BF
:10865000481E106011F8014CEB68298A01FB0434B4
:10866000AB6811791B1ADBB2994238BF13719DF8C0
:108670000700FFF79DFD204603B030BD37B5054626
:1086800000230DF107000C468DF80730FFF76CFD55
:108690002A681368591C1160E968641A298AB4FBB6
:1086A000F1F41C709DF80700FFF782FD03B030BDA8
:1086B000826810B504462AB1436901680069984789
:1086C0000023A36010BD0EB403B5039921B104AB20
:1086D00001AA019300F06EF802B05DF804EB03B05C
:1086E0007047826830B40468551C8560A154D0E995
:1086F00001329A4202D330BCFFF7DABF30BC704778
:108700002DE9F84F9846DDE90A43154682460F46A3
:108710000A464FF00109AA420FD2C14538BFC146EF
:1087200013F0010B01D16CB900240126B8F1010F3F
:108730001BD908F1FF386E43F8E709F10109B2FBD4
:10874000F5F2E8E79B070ED5B8F1000F0CBF302615
:108750002026A145E9D2013C31465046FFF7C1FF32
:10876000002CF6D1E0E72026F3E7B7FBF6F39D42B5
:10877000E1D9DFF83C80B7FBF6F3504618F8031058
:1087800006FB1377FFF7ADFF3346AB42B6FBF5F6BA
:10879000F1D2BBF1000F02D00CB1A14501D3BDE86D
:1087A000F88F20215046013CFFF79BFFF4E700BF04
:1087B000D6FB02002DE9F74F0546174688460029EB
:1087C00000F0428118F8011B49B92B7B002B00F007
:1087D0003B81284603B0BDE8F04FFFF769BF25296C
:1087E00040F0B780002698F800302D2B424608F163
:1087F000010823D0302B24D02B2B25D000242A2B6A
:1088000002F1010123D13B681A1D1B683A601C4428
:108810000A4613782E2B26D101324FF0000A10465B
:1088200010F8011BA1F1300CBCF1090F1DD80A236F
:1088300003FB0A13A3F1300A0246F0E746F00106F3
:10884000D1E746F00206CEE746F00406CBE711F882
:10885000013CA3F130000928DBD80A2202FB0434D2
:10886000303C0A46CBE74FF0000A12F8011B01F03A
:10887000FB0068289046F8D0782909D86F290CD8D1
:10888000632962D022D8252963D0582900F0888036
:1088900098F80030002B95D197E770390829F7D860
:1088A00001A353F821F000BF238A0200918802003F
:1088B00091880200B1890200918802008F8902002C
:1088C0009188020091880200A1890200642901D0E8
:1088D0006929DDD13A68D2F80090111D89EAE97260
:1088E0003960A2EBE9724FF0010B092A35DCD34560
:1088F00038BFD3462CB1B9F1000F01DB720700D5A8
:10890000013CB30702D5BAF1000F03D0F00701D440
:108910004CBB0024B9F1000F2DDAC9F100092D215B
:108920002846FFF7DEFE06F00302022A04D1BAF160
:10893000000F01D11CBB0024CDE9004653460A229A
:1089400049462846FFF7DCFEA2E73B681A1D197866
:108950003A602846FFF7C5FE9AE70A230BF1010BA0
:10896000B2FBF3F2C1E7A345D4D220212846013C53
:10897000FFF7B7FECCE77107D5D52B21D0E7A3458C
:10898000DAD230212846013CFFF7ABFED2E7396846
:10899000CDE900460A1D3A6053460A220968D0E72D
:1089A00039680A1D3A60CDE9004653461022F5E7C2
:1089B0003B681A1D3A6016F00106D3F8009028D1E2
:1089C000B9F1000F03D0484606F064FC0646B442F5
:1089D00000D904BB09F1FF3919F8011F00293FF440
:1089E00057AF2846FFF77DFEF6E728460136FFF72A
:1089F00078FE19F806100029F7D1A642BFF448AF57
:108A0000002C3FF445AF20212846013CFFF769FECA
:108A1000F3E70026EDE720212846013CFFF761FE41
:108A2000D5E73B681A1D3A60302128461C68FFF7DD
:108A300058FE78212846FFF754FE00220823CDE98E
:108A40000032214610227CE703B0BDE8F08F00BF62
:108A50002DE9F84FB0F806A04579D2F800B09DF89E
:108A600028900AFB05F5043D88460BEB0301A9425B
:108A700003F1040488BFA5EB030BB4FBFAF6074629
:108A80000AFB1644C2F800B04EB9AAEB04055D45D6
:108A900028BF5D46BBF1000F04D1BDE8F88F3F68E9
:108AA000013EF1E7043408EB06003C442A46B9F1E4
:108AB000000F0DD02146ABEB050B06F06DFBDA4540
:108AC0002E443F6855464FF0000428BF5D46E1E75D
:108AD00001462046EFE7FFF796BDF8B54679014617
:108AE000721E0546002393422D6803D30024A6423C
:108AF00002D8F8BD0133F6E70F682846FFF7BEFD40
:108B000001343946F3E72DE9F843068ACD1C0746C0
:108B1000FFF790FD043E35440446B5FBF6F5F0B191
:108B20004FF48073EDB28380C680013D07608146BB
:108B30004FF00008A84512D23846FFF77BFD0646E5
:108B400048B163790133637108F10108C9F8000085
:108B500007608146EEE72046FFF7BFFF3446204618
:108B6000BDE8F88301210430FFF721BD10B50121D4
:108B700004460430FFF727FD10F0FF0F04D1204614
:108B8000BDE81040FFF7A9BF10BD1FB5039200223A
:108B9000009203AAFFF75CFF05B05DF804FB1FB568
:108BA00003920122009203AAFFF752FF05B05DF87D
:108BB00004FB836800225A60C3E904229A60DA60E9
:108BC0001A6070470B684A684360934208BF0023ED
:108BD000016008BF43607047436843B10268916811
:108BE00052680B449342436004BF002343607047C4
:108BF00070B5446806460D46206818B1B36829462A
:108C0000984718B923682B60256070BD2468F3E786
:108C10004368186808B102681A60704743681868AA
:108C200070474368186800B97047884203D10268EA
:108C30001A600120704703460068F4E710B50D493B
:108C4000A1F59472914201D800200FE08C1AE30F35
:108C500003EBE4035B1002EBC30452F833308342AE
:108C600005D802D204F10802ECE7606810BD214685
:108C7000E8E700BFE400030008B5FFF7DFFF024BA1
:108C8000002808BF184608BDA9FF020043681B68FA
:108C900018470000024B5B6803B11847704700BFDC
:108CA000F0300020020600F00F034CBF02480348DA
:108CB000DB001844704700BFFC3000204431002026
:108CC00008B5FFF7EFFF016009B14B681968416013
:108CD00008BD0000024B0146D3E90002104700BF67
:108CE0004431002038B5831EDBB2062B98BF1A4AE8
:108CF0001A4D98BFD25C2B78A3F10203DBB288BF78
:108D00000022062B9ABF1449CB5C002393420446F1
:108D100003D0B2B1124801F08FFF022C14D0A4F19D
:108D20000800424242412B78022B0FD0A3F10801E8
:108D30004B424B41934202D052B103F029F82C70C0
:108D400038BD01F0B3FFE8E70122ECE70123F1E7CA
:108D500003F014F8F3E700BFED000300BC3200207D
:108D6000482A00200378052B73B504460CD1304AFD
:108D7000D2F88434D2F8802412F0FF0F04D12D4AA7
:108D8000DBB2052B08BF144623782BBB2A4B1D688A
:108D9000DDB98DF80450294D01A8FFF7E5F92A68DF
:108DA00012B9274B62881A8001212448FFF7FFFB84
:108DB0009DF80400FFF7FCF9224B1B6813B1012159
:108DC000204698472B6802B070BD2B6860889B686E
:108DD00098472B685D68DBE71B4801A9FFF74FFB4D
:108DE00005460028EFD02368036000260DF103003C
:108DF0008DF80360FFF7B8F9114B10481B88026823
:108E000001339B1AEB803146FFF7AEFBA8809DF83B
:108E10000300FFF7CDF901A90B48FFF75AFB094BF7
:108E20001B680146002BCED020469847CBE700BFF9
:108E30000070024004010300B0320020B83200206C
:108E40008C310020F030002098320020FFF78ABFDC
:108E5000012805D0022805D030B90448FFF782BFA9
:108E60000348FBE70348F9E7704700BFF800030039
:108E7000FC000300000103000148FFF773BF00BFBF
:108E8000080103002DE9F04F87B00026054688460B
:108E900091461F4602966B6800225C6829460123B2
:108EA00002A8A047044638B98DF80600049082460F
:108EB000564503D8052028E00136ECE76B680DF134
:108EC0000602D3F804B02946012304A8D8476B68EA
:108ED0000DF10702D3F804B02946012304A8D847AE
:108EE0009DF8073043459DF8063013D14C450FD10E
:108EF000109A13603B7087F801806A68023B5468DF
:108F00002946BA1C04A8A047002007B0BDE8F08F8E
:108F10000134E4B26A68023BD2F804B02946002268
:108F200004A8D8479DF806309A44C1E72DE9F743D5
:108F3000082305462D492E484FF48472FFF78CFA1A
:108F4000002851D12B4802F039FF0446002847D1B0
:108F5000294B1870294B1860294B0146186048228C
:108F6000284806F042F928484822214606F03DF9F3
:108F7000264B8DB9C3E900551D72002003F082FC19
:108F800018B1852801D0FEF705FF214F002697F87C
:108F9000089007F1090810E095E8070083E807004A
:108FA000EBE7A37823443946985CFFF789FE013547
:108FB0006378EAB29342F4D80136F4B2A14504D9F9
:108FC00004EB440444440025F2E70B2310488DF8D9
:108FD000043001A9FFF75AFE044608B102F088FDEB
:108FE000204603B0BDE8F0830324F9E78E3100206A
:108FF000983200204D8E0200BC320020A8320020A2
:10900000AC320020FC30002044310020F030002041
:109010001C01030010B502F06BFE10B908231846BE
:1090200010BD02F06DFE04460028F7D1044803F09D
:109030005CFC03460028F2D0FEF7ACFE2346EEE7C8
:10904000F400030002F05EBD03F0C2BA4FF08043AB
:10905000D3F83824920702D50348FFF783BED3F82C
:109060003824D107F4D470470901030007B58223DF
:1090700001A88DF80430FFF775FE03B05DF804FB1E
:109080002DE9F74300F1090190F808900546002604
:109090000F46F3B24B452AD291F801800024E3B287
:1090A00098450AD98B780A190134D05CFFF7FAFD8C
:1090B0000368002BF3D0112028E001360331E8E7E4
:1090C000A37823442946985CFFF7FAFD01366378BC
:1090D000F2B29342F4D808F101082B7A5FFA88F4CF
:1090E000A34216D904EB44043C440026EFE74FF0BA
:1090F0000008F2E713681A68002AFBD11D6001A975
:109100000B2328468DF80430FFF7C0FD03B0BDE8FF
:10911000F083014BEFE700BFA8320020024B187824
:10912000003818BF01207047B4320020030710B583
:10913000044604D402F0F4FF204603F017FB204657
:10914000BDE8104003F0BCBA03F088BA014B1868C0
:10915000704700BFA8320020F0B50A4B02461868DD
:1091600078B1057A0023861DDCB2A54201D80368D8
:10917000F5E7013303EB4307F75D9742F4D101B103
:109180000C70F0BDA83200201146FFF77FBD08B576
:1091900000F00F03082B07D8FFF784FD006818B113
:1091A000BDE80840FFF772BD102008BD38B5054B7B
:1091B00005461C6804B938BD29462046FFF766FD00
:1091C0002368F6E7A832002038B5074B05461C682F
:1091D0000CB9062038BD29462046FFF757FD062862
:1091E000F8D12368F3E700BFA832002013B5044686
:1091F000019102F029FE50B1064B1B78022B06D1DB
:109200000199204602B0BDE8104002F02DBE0820B2
:1092100002B010BDBC32002013B50446019102F02B
:1092200013FE50B1064B1B78022B06D10199204644
:1092300002B0BDE8104002F0CFBE082002B010BD61
:10924000BC320020F8B543689B6805460C461646BC
:1092500013B92EB1072002E098470628F9D0F8BDCF
:109260002B7AA34213D9093504EB44042C446778C4
:10927000F3B29F4201D80020F1E762789A4208D900
:10928000A219A378D05CFFF751FF0136F0E773789D
:10929000FFDE00231B78FBE74368DB6870B50546FB
:1092A0000C4603B198472B7AA34213D9093504EB36
:1092B00044042C4400256678EBB29E4200D870BD71
:1092C00062789A4209D96219A378D05C03F0C6F992
:1092D0000135F1E700235B78FFDE00231B78FBE715
:1092E00043681B6903B118471846704770B5084BAF
:1092F0001C6804B970BD267A0025E9B28E4201D8F7
:109300002368F5E700222046FFF79CFF0135F4E7CC
:10931000A832002070B5084B1C6804B970BD267ACD
:109320000025E9B28E4201D82368F5E72046FFF711
:10933000B3FF0135F5E700BFA832002038B5037848
:109340000F2B044610D9A3F1800283F08003052B74
:1093500000D938BD052AFCD8DFE812F067002C00E0
:10936000490073007E00E0000F2BF2D801A252F8F2
:1093700023F000BF7B940200AB9402000B95020027
:10938000CF940200ED9402001D9502002F9502007B
:1093900053930200599502005D9502006195020009
:1093A000539302005393020053930200539302001D
:1093B000279502006B48FFF78DFC6A48FFF7F6FE21
:1093C0000D20FFF767FCFFF7A5FF00F0CCF9664B17
:1093D0001B6853B9654B187A00F0010002F064FC79
:1093E0000120BDE83840FFF77DBC0120F4E7FFF71E
:1093F00091FF03F0CBF80020FFF774FC5C48FFF707
:10940000D5FE5B48FFF766FC0E20FFF743FC594B87
:109410001B78023BDBB2062B9BD8574AD35C002B50
:1094200097D0BDE8384001F041BC524B1B78062B69
:1094300005D003F0FD03052B8BD10220D1E70820D6
:10944000CFE74C4B1B78032B83D103F0DBF80028CC
:109450003FF47FAF0420C4E7464B1B78032B05D1B4
:1094600003F0D0F810B10420FFF73CFC02F052FCEE
:1094700000283FF46EAF0620B3E73E4B1B78032B6A
:1094800001D0082B02D13D48FFF758FF0020FFF71D
:1094900001FC354B1D68002D3FF45BAF284621468B
:1094A000FFF7F4FB2B685D68F5E7FFF733FF00F08B
:1094B00051F90220FFF716FC0120FFF7EBFB2046D5
:1094C000FFF708FC2046BDE83840FFF76FBE294B88
:1094D0001B78082B06D10220FFF704FC02F062FC87
:1094E0000320EAE70520FFF7FDFBF9E70320FFF77C
:1094F000D1FB2348FFF7EEFB2148FFF757FE1D4B3A
:109500001B78062B99D107206BE70320FFF7EAFBB6
:109510000220FFF7BFFB2046FFF748FE2046BDE8CC
:109520003840FFF7D7BB0F20FFF7B4FBCAE78078BE
:10953000FFF7B8FB214643680068984700283FF4CE
:1095400008AFA07802073FF404AF03073FF501AF6F
:10955000BDE8384002F0AABD0820E5E70920E3E7AE
:109560000A20E1E70A010300AC320020F0300020BD
:109570000B010300BC320020ED0003000C010300CE
:109580000D01030073B5244D002301932B6823B90B
:1095900022492348FEF7ADFF28602C68ECB1A6886D
:1095A00086B1E388B3F5006F24BF0023E380E3882E
:1095B000ADF806305A1C013EE280A68001A8FFF7F4
:1095C000BDFE07E02046FFF7B9FE14491448FEF738
:1095D000BBFF2E60012002B070BD124B186800283E
:1095E000F9D00DF103008DF80340FEF7BDFD0E4BE1
:1095F0000C481A88B2F5006F28BF1C801A88ADF895
:109600000620511C19800121FEF7E9FF9DF8030097
:10961000FEF7CEFDD2E700BFC0320020EC300020C4
:1096200098320020B83200208C3100200020704792
:109630002DE9F04F2DED028B4B6885B080460C462E
:1096400001926BB90B681B681B684BB98D683DB9FB
:10965000C0E90055284605B0BDEC028BBDE8F08F8F
:1096600002F020FD019BE7689F4228BF1F4604F1DE
:1096700010034FF0000A08EE103A814656460125C5
:109680004FB3A3686168BB429B4628BFBB4629B362
:109690005A4609EB060005F07FFD00236360A268CF
:1096A000E368A2EB0B02A3EB0B03A260E360A7EB62
:1096B0000B075E440ABBBAF1000F03D022681268A0
:1096C00012682260DBB12368DBB963601EB1019BC5
:1096D000B34288BF0025C8E90096BBE7002BDED067
:1096E00021684B6818EE100AD3F804A009EB0602B3
:1096F0005B46D0474FF0010AD1E7002BC0D10025CF
:10970000BEE70023029321684B680022D3F804B01F
:1097100002A80123D84708B92061B1E7A368013343
:10972000A360F0E7084B1A7882420CD0052818BFD6
:10973000064A187018BF137805481CBF23F00203AF
:109740001370FFF7FBBD7047D0320020EC320020D1
:109750002C01030008B50020FFF7E8FCBDE8084035
:109760008020FFF7E3BC08B50020FFF7EDFCBDE863
:1097700008408020FFF7E8BC38B505460C4602F0EB
:109780007FFDA84205BFD4E90001034B1020C3E9C7
:10979000000108BF002038BDF03200207FB5C3882B
:1097A00093421E4628BF164693420D46144625D9BD
:1097B000802002F043FBB4FBF0F202FB1040B0FA51
:1097C00080F04009002303900DF103008DF8033071
:1097D000CDE90156FEF7C8FC01A98020FFF706FD80
:1097E000044620B906498020FFF7C6FF04469DF8CD
:1097F0000300FEF7DDFC204604B070BD0020E1E769
:10980000600103002DE9F04F0B780E2B89B00D4657
:1098100013D8A3B1013B0D2B11D8DFE813F01200D0
:109820001A00160010002A00FB01100010001000A2
:1098300010001A00E501E901F901852B13D0062477
:10984000E2E10320FFF76EFFF9E7B448FEF7D8FE28
:1098500008B90024D8E1B24B01221A60BFF36F8F20
:10986000BFF34F8FF5E7AF4B1B78032BE7D10420F5
:10987000E8E70523AC4D8DF814300DF1150002F02A
:109880005FFC00232B609DF8153003F01F07032FAA
:1098900000F26381DFE817F00400FB0058013E008E
:1098A00013F0600FC3F3411834D1DB099DF8161093
:1098B00000F0A680062916D0082900F0938049BB45
:1098C0009A4C0222204605F090FC237843F00102D6
:1098D0002270974A1278920744BF43F00303237023
:1098E000022292490EE09DF81830022B16D0032B6D
:1098F00068D0012B0ED1BDF81B30002B00F0718118
:109900008C4912220DF11500FFF748FF0446062C82
:1099100040F02B8105A8FFF757FCFCE0BDF81B6069
:10992000002E00F05E81092E28BF0926FFF70EFCED
:109930004FF00909044674BB7C4C7F4932462046EF
:1099400005F02AFC2771A4F80290FFF7E7FB18B195
:10995000E37943F02003E371FFF7F8FB774BC3E9AA
:1099600000049E60BDF81B20DA6003A800238DF878
:109970000C30FEF7F9FB72498020FFF74DFC0446DE
:1099800020B970498020FFF7F7FE04469DF80C00CF
:10999000FEF70EFCBBE7CDF80C804FF0000A6368C1
:1099A0000022D3F804B02146012303A8D84730B9D8
:1099B000237A1F442368D1441C68FFB2BBE70AF135
:1099C000010AECE7BDF81B30002B00F00A81BDF85E
:1099D00019109DF8170000F08FF90146002899D062
:1099E00002788FE74F4A1278052A03D14F4A137045
:1099F000012276E7042A8DD14C4B83F80080F7E7EB
:109A0000032910D009292CD0012983D1BDF81730A2
:109A1000012B7FF47FAFFFF781FB60B1444A1378DD
:109A200023F002030FE0BDF81730012B7FF472AF73
:109A3000FFF774FB18B90F2402F006FCE4E03C4A7F
:109A4000137843F0020313702B68002B00F0C980D9
:109A500002F016FC044600287FF4FBAE02F096FBF1
:109A6000D2E0304B1B78043B012B01D90824E3E7FB
:109A70009DF817302BB9FFF74DFC0420FFF752FE7D
:109A8000E2E7012B40D1FFF731FC0520F6E79DF816
:109A9000190003A9FFF760FB064608B91024CBE7BD
:109AA0009DF80C1005AAFFF76FFB062804465CD151
:109AB0009DF8152012F0600FBED11A4B9DF80C10C6
:109AC00018789DF81630D20916D07BB10A2BB3D185
:109AD0000528CBD130460192FFF702FC1349019AC9
:109AE00008700DF11500FFF759FE14E00528BDD1EF
:109AF0000E490B800222F4E70B2B9DD10528B5D12E
:109B0000BDF81730FF2B01D9072495E79DF81720E2
:109B10003046FFF797FB044627E000BFF8320020ED
:109B20005C700240D0320020F0320020FC32002075
:109B3000EC3200204C0103002D010300D432002040
:109B400068010300600103009DF81900070706D1B2
:109B50009DF8153013F0600F0BD006246CE705A9B3
:109B6000FFF715FB06280446F2D0002C3FF46CAF3B
:109B700062E79DF81620354B9DF819401B78012AA5
:109B80001DD0032A0CD0002AE7D1052B02D02607CE
:109B90007FF46CAF204602F0A9FA2D490880A9E7AE
:109BA0002007DAD4BDF81720002AD6D1052B02D021
:109BB00021077FF45BAF204602F078FA44E72207E2
:109BC000CBD4BDF81720002AC7D1052B02D023071C
:109BD0007FF44CAF204602F0A3FA204602F0C6FD07
:109BE00032E702F015FB34E60020FFF79BFD30E67C
:109BF0004FF08043D3F8384414F0010401D0022020
:109C0000F3E70120FFF78EFD204609B0BDE8F08F95
:109C10000120EAE7C87803283FF411AE0D4E3368FF
:109C20008BB10022716832609847044600287FF4A7
:109C300003AF336823B1AB78002B7FF40AAE0DE796
:109C400002F0E6FAE0E70E24F6E600BFD03200208C
:109C5000FC320020F032002008B1402303600148AC
:109C6000704700BFFC32002070B54FF0805286B0C4
:109C7000D2F8A830D2F8A42000926FEA83436FEAAA
:109C800093430B4A0B4E9BB20D2102A805F051FAEB
:109C900002AD002402A805F0FDFA844201D306B00B
:109CA00070BD15F8013B06F8013B0134F2E700BF37
:109CB000700103003C33002010B50E4B53F82040D8
:109CC00023780BB9A01C10BD0020FFF7C5FF013C95
:109CD00000235A1CA15C39B9DBB201335B00DBB253
:109CE00043F440730380EEE7D3B220F81310134619
:109CF000EFE700BFC4010300034608B9FFF7DCBF6C
:109D0000012807D0022805D0032803D0042801D059
:109D1000052809D1054800EB4303587820B1044BCE
:109D200053F82030002BE9D100207047DC010300FC
:109D3000C4010300C36903B11847704703680022D8
:109D4000C3E91E22C3E920221A845A62DA6203F1AF
:109D500034025A6770470000F0B504680D7A002C91
:109D600000F08780A4F213347C2C00F222837C2C38
:109D700000F21F83DFE814F085008F009D00A9002A
:109D8000B500C100CD00D9001D031D031D031D0337
:109D90001D031D03EF00FB001D031D031D031D0319
:109DA0001801240132011D031D031D03450151014A
:109DB0007F011D031D031D031D03670173017F0147
:109DC0001D031D031D031D031D031D038B011D0327
:109DD0001D031D031D039F01AB01B701C301CF018B
:109DE0001D031D03DB01E701F301FF010B021D034E
:109DF0001D0317022302340240021D031D034C02FF
:109E00005802640270027C021D031D031D031D0322
:109E10001D031D031D031D031D031D031D031D0342
:109E20001D031D031D031D031D031D031D039B02B5
:109E3000A7021D031D031D03C0021D031D031D03F7
:109E40001D03DD021D031D031D031D03DD021D0394
:109E50001D031D031D031D031D03E902F5021D0360
:109E60001D031D031D0313031D031D031D031D03FC
:109E700013030824047123B940F213330360012053
:109E8000F0BD0AB1047914700B24012B04710ED8B3
:109E90004FF44573F2E700240AB1067916550134F0
:109EA0000E7D06719C4205D340F21533E6E701248E
:109EB000F2E700240AB106791655013402269C42C5
:109EC000067103D340F21633D8E700240AB10679AD
:109ED0001655013402269C42067103D340F2173313
:109EE000CCE700240AB106791655013402269C42BB
:109EF000067103D34FF44673C0E700240AB1067914
:109F0000165501344E7E06719C4203D340F219333C
:109F1000B4E700240AB106791655013400269C42A4
:109F2000067103D340F21A33A8E700240AB1067978
:109F30001655A94E002701343770A74E3678AE4229
:109F400002D340F29A3399E70926A342067103D857
:109F500040F2213392E700240AB106791655013404
:109F600004269C42067103D340F2223386E7002484
:109F70000AB106791655984E0F7A3678DFF85CC22A
:109F8000B74204F1010440F2188201F1090706EB1F
:109F9000460607EB060E9C42BE5DCCF800E006715B
:109FA00003D340F2273369E700240AB10679165536
:109FB000013400269C42067103D34FF44A735DE7D7
:109FC00000240AB106791655844E36680134767835
:109FD00006719C4203D340F229334FE700240AB1B3
:109FE000067916557D4E0F7D36683678B74204F1F6
:109FF00001041ED102269C42067103D340F22D3388
:10A000003CE700240AB106791655013402269C4229
:10A01000067103D340F22E3330E700240AB10679EB
:10A02000165501344E7E06719C4225D340F22F33E3
:10A0300024E78F7DB74223D10A269C42067103D3C1
:10A040004FF44D731AE700240AB10679165501340E
:10A0500000269C42067103D340F235330EE70024FC
:10A060000AB106791655013400269C42067103D3C5
:10A0700040F2363302E700240AB10679165501345E
:10A080000026A342067103D840F23D33F6E60024D1
:10A090000AB106791655514E0F7D36683678B742AB
:10A0A00004F1010440F0E98005269C42067103D3C7
:10A0B00040F24233E2E600240AB106791655013433
:10A0C00024269C42067103D340F24333D6E6002493
:10A0D0000AB106791655013400269C42067103D355
:10A0E0004FF45173CAE600240AB1067916550134BB
:10A0F00010269C42067103D340F24533BEE600248D
:10A100000AB106791655013401269C42067103D323
:10A1100040F24633B2E600240AB1067916550134FE
:10A1200005269C42067103D340F24933A6E600247B
:10A130000AB106791655013424269C42067103D3D0
:10A1400040F24A339AE600240AB1067916550134E2
:10A1500001269C42067103D340F24B338EE6002465
:10A160000AB106791655013403269C42067103D3C1
:10A170004FF4537382E600240AB106791655013470
:10A180008E7D06719C4203D340F24D3376E6002467
:10A190000AB106791655013404269C42067103D390
:10A1A0004FF454736AE600240AB106791655013457
:10A1B00024269C42067103D340F251335EE600240C
:10A1C0000AB106791655013402269C42067108D35D
:10A1D00040F2523352E600BF4A3300204C33002095
:10A1E00000240AB106791655013402269C420671F4
:10A1F00003D340F2533341E600240AB106791655E1
:10A20000013405269C42067103D340F2563335E6ED
:10A2100000240AB106791655013424269C420671A1
:10A2200003D340F2573329E600240AB106791655C4
:10A23000013406269C42067103D34FF456731DE683
:10A2400000240AB10679165501340E7D06719C4230
:10A2500003D340F2593311E600240AB106791655AA
:10A2600001348E7D06719C4203D340F25A3305E6D9
:10A2700000240AB1067916550134534E36687778B2
:10A28000524E3770524E00273770514E37784F4E2E
:10A290003678B74204D34F4F3E7801363E704CE6D5
:10A2A0000726A342067103D840F26E33E6E5002488
:10A2B0000AB106791655013405269C42067103D36E
:10A2C00040F26F33DAE500240AB1067916553E4EA6
:10A2D0003F4F36683F7896F801C0BC4504F1010451
:10A2E00070D996F802C03E449C4216F80C60067184
:10A2F00003D340F27333C1E500240AB10679165541
:10A30000314E0F7D36683678B74204F1010406D12C
:10A3100003269C4206710DD34FF45E73AEE58F7D2C
:10A32000B7420BD102269C42067103D340F27D3323
:10A33000A4E500240AB10679165501344026A3424B
:10A34000067103D84FF4617398E500240AB10679C9
:10A350001655013400269C42067103D340F2853322
:10A360008CE500240AB106791655174E0F7D366824
:10A370003678B74204F1010407D10E6A9C42367860
:10A3800006710DD340F28A3378E58F7DB7420BD149
:10A3900000269C42067103D340F28F336EE5002401
:10A3A0000AB1067916550134094F3E7801363E70E0
:10A3B0006BE700230360184662E50023CCF8003009
:10A3C0001B78FFDE0023FBE74C33002049330020DD
:10A3D0004B3300204A33002073B50646E8B90D68B8
:10A3E0002B7B202B1BD1072205F10E0105F1180054
:10A3F00004F0D2FE0B4C0C48697FAB7FAA69019137
:10A40000241AE408297F0091240444F0030007493A
:10A41000FDF7F5FA304602B070BD0320FBE70620D9
:10A42000F9E700BFB0F9020038F90200E8010300C3
:10A4300038B51A4643600546CB6912480C461249A6
:10A44000091AC9080904934241F0040010D3A16914
:10A4500029601144A161216F9B1A11442167E361B6
:10A460000A49FDF7B6FAE069003818BF012038BD87
:10A4700004F128032B600649A267FDF7A1FA00202A
:10A48000F5E700BF38F90200B0F90200300203001E
:10A4900068020300037A012B08D9427B012A00F1EC
:10A4A0000C0306D9827B13445878704700235B78ED
:10A4B000FFDE00231B78FBE72DE9F04F0B7889B016
:10A4C00006460F460E2B1AD8DFE813F0680072011B
:10A4D0006800680019000F00B400190019006F012E
:10A4E000190068006800680068004A78D1094FEADE
:10A4F000521330D013F0030303D0012B21D00624D4
:10A500001BE002F01F02012AF9D1BC78062CF6D11B
:10A5100005A80393FFF7A0FB03AB0093FA78397902
:10A52000034605463046FEF7ADFC052805D0039AE4
:10A530002946781CFFF732F90446204609B0BDE8E9
:10A54000F08FBB78212BDAD1B7F80720072AD6D1B4
:10A5500001681831EDE7012BD1D1BB780568202BBC
:10A560001ED0222BCBD1B7F80730002BC7D1964B8A
:10A570009648B7F803209649C01AC008000440F076
:10A580000300FDF71DFA95F82020B7F803302B845F
:10A5900002F0010203F001018A4225D10024CCE738
:10A5A000B7F80730072BAAD14FF4E462AA81002440
:10A5B0000DF10B000E35CDE9055307948DF80B40D6
:10A5C000FDF7D2FD204605A9FEF710FE044630B97E
:10A5D000804B03A9CDE90336FFF7CEF804469DF87A
:10A5E0000B00FDF7E5FDA8E78CB2C1F10301C9B28C
:10A5F0003046FFF79FFB002CD0D1337A012B40F27D
:10A60000DD80737B06F10C02002B00F0D980B37B58
:10A61000D05C01F0DBFE3046FFF73CFF01F0D6FED8
:10A6200005F13403C5E91E44C5E920446C62EC62BF
:10A630006B6782E7037A002B00F0C480837A00F115
:10A640000901002B00F0BC80C37ABA78CB5C93423E
:10A650000AD15D4B5D486049C01AC008000440F053
:10A660000300FDF7A9F999E7130697F8038017D5BA
:10A67000B8F1000F05D0B8F1030F14BF0324002474
:10A680005BE7514B51485549C01AC008000440F0DF
:10A690000300FDF795F901213046FFF74BFB7DE7FD
:10A6A00008F0FD03012B3FF479AFB8F1000F40F043
:10A6B00083800568FFF7EEFE494BAC6A059305F110
:10A6C0000C03824606931CBBEB6FAC67C5E91F43C6
:10A6D000EB6A63B1D5E90B0105F1240383E80300BC
:10A6E000EC6205A95046FEF797FD044600E06C6257
:10A6F000354B3648BA783B49C01AC008000440F0D0
:10A700000300FDF75DF900213046FFF713FB14E766
:10A71000D5F884B0686A5C4528BF5C4605F1340909
:10A720002246494604F038FDEB6F2344C5E91F83F8
:10A73000ABEB0403AB67EB6A4C446C6733B305F1D6
:10A74000240405F12C0999E8030084E80300AB6FA9
:10A75000686AC5F82C801BB96B6A002BC1D116E062
:10A76000AA6A696F9A4214D804F016FDAB6AAA6F00
:10A77000C5F88030D21AAA676A6F1A446A67002146
:10A780003046FFF7D7FAEB6A002BDCD16B6200246E
:10A79000AEE71A4604F000FDAA6FAB6AEA679B1A9F
:10A7A000AB626B6A13446B62D6E70321FFF7C2FA10
:10A7B0003046FFF7C3FAF1E60324BEE66378FFDE16
:10A7C0001B78FCE75B78FAE738F90200B0F9020081
:10A7D00096020300D9A30200B7020300C9020300D6
:10A7E00031A40200DE0203001FB503681B8CDC07E6
:10A7F00014D5037A012B13D9437B00F10C0493B1D8
:10A80000837BE05C9306CDE901120CBF012300239A
:10A8100001A90393FEF7EAFC04B010BD0820FBE792
:10A8200000235B78FFDE1B78FCE70000F7B50468C7
:10A83000238CDB070F4616463BD5656A002D32D1C7
:10A84000A16F91420ED3616F384604F0A5FCA36F4F
:10A85000C4F880609B1BA367636F3344636728461B
:10A8600003B0F0BDC4E90972FFF714FE134B009367
:10A8700004F10C030646019369B10A463846616F3C
:10A8800004F08AFCA36FA26AD21AA262626AC4E9C7
:10A890001E531A44626269463046FEF7BDFC00282A
:10A8A00008BF9220DCE7E36A2BB9C4E90B129220BF
:10A8B000D6E70820D4E71120D2E700BF31A4020078
:10A8C0000A4B1B685A1C05BF094B0A4A0A4A106802
:10A8D0000ABF1B781068C0F30310082B04D10328AB
:10A8E0008CBF00200120704700207047300100100D
:10A8F000E00F00F0E80F00F034010010064B1B6879
:10A90000082B06D1054B1B68032B02D8044AD05CE8
:10A9100070470020704700BF300100103401001064
:10A920001003030008B5FFF7CBFF40B14FF08043A1
:10A930000022C3F80C21C3F81021C3F83825FFF713
:10A94000BFFF002846D04FF080525E4BD2F804146F
:10A95000C3F82015D2F80814C3F82415D2F80C1443
:10A96000C3F82815D2F81014C3F82C15D2F8141413
:10A97000C3F83015D2F81814C3F83415D2F81C14E3
:10A98000C3F84015D2F82014C3F84415D2F82414A3
:10A99000C3F84815D2F82814C3F84C15D2F82C1473
:10A9A000C3F85015D2F83014C3F85415D2F8341443
:10A9B000C3F86015D2F83814C3F86415D2F83C1403
:10A9C000C3F86815D2F84014C3F86C15D2F84424C3
:10A9D000C3F87025FFF792FF10B13B4B3B4A1A605A
:10A9E000FFF78CFF18B13A4BFB22C3F81825FFF78D
:10A9F00085FF48B13749384B0A681B6822F00F02BF
:10AA000003F00F0313430B60FFF778FF18B1334BCC
:10AA10004FF400721A60FFF753FF48B14FF08043C4
:10AA2000D3F80024D20744BF6FF00102C3F800241A
:10AA30002B4AD2F8883043F47003C2F88830BFF351
:10AA40004F8FBFF36F8F4FF01023D3F80022002AEF
:10AA500003DBD3F80432002B2FDA224B0122C3F898
:10AA60000425D3F80024002AFBD04FF01022122135
:10AA7000C2F80012D3F80024002AFBD04FF01023B4
:10AA80001222C3F80422174B1A46D3F800140029E7
:10AA9000FBD00021C3F80415D2F80034002BFBD002
:10AAA000BFF34F8F0E49104BCA6802F4E0621343A4
:10AAB000CB60BFF34F8F00BFFDE70C4B0C4A1A6011
:10AAC00008BD00BF00C000408C5600404881030014
:10AAD00000F00040E40E0040580200104096024092
:10AAE00000ED00E000E001400400FA05502A0020DB
:10AAF0000090D00342DF704743DF704738B5074C02
:10AB0000051E04F1080318BF1C4623682BB11A6800
:10AB100022605B6828469847F7E738BD5833002025
:10AB200020B9054B01225A70FFF7E8BF012802D176
:10AB3000014A9070F8E770475033002020B9034B6A
:10AB400001225A70FFF7DABF704700BF5033002070
:10AB500038B50E4C2378B3B90D486360A360236108
:10AB6000E36000F0DBF8054602F0E0FD08B900F014
:10AB7000E1F801232370074BD3F800340BB1012314
:10AB8000A370284638BD8525F5E700BF5033002067
:10AB900021AB02000000014037B50D4C00230DF140
:10ABA00007008DF80730FDF7DFFAE368013BE3604B
:10ABB000E36833B9074BD3F8005415B900F0D0F867
:10ABC000A5709DF80700FDF7F3FA03B030BD00BF94
:10ABD0005033002000000140012813B50CD0032899
:10ABE00020D038B9124B0122C3F88020BFF34F8F19
:10ABF000BFF36F8F02B010BD0E4C00230DF10700A4
:10AC00008DF80730FDF7B0FA23780BB9FFF7A0FFF6
:10AC1000E3689DF807000133E3600123A370FDF7AB
:10AC2000C7FAE7E700F086F8FFF7B6FFE2E700BFF4
:10AC300000E100E05033002037B51B4C6378054637
:10AC400003F0FF029BB110B1436800209847002336
:10AC50000DF107008DF80730FDF786FA63689DF85F
:10AC6000070001336360FDF7A3FA03B030BD0DF1B7
:10AC700007008DF80720FDF777FA25B1A268134683
:10AC800053B92A60A5606368002BE7D102F04EFD3E
:10AC900030B1FFF72FFFE1E79D42F4D01B68EFE7EB
:10ACA00000F072F8DAE700BF5033002073B50F4CA4
:10ACB00000230DF107008DF80730FDF755FA6368A2
:10ACC000013B6360666836B902F030FD054640B16D
:10ACD000FFF712FF66709DF80700FDF769FA02B0F2
:10ACE00070BD00F05DF86570F5E700BF50330020DF
:10ACF00010B5034653E8000F00EA010243E80024C0
:10AD000094F0000FF6D110BD00F18040002382B016
:10AD1000036003680193019B02B07047044A1379F2
:10AD200023B9012110609180184670478520704733
:10AD300064330020084B1A68D20704D4C02283F879
:10AD4000002301221A604FF080420123C2F8183517
:10AD5000024A1370704700BF00E100E06C3300202E
:10AD60004FF0804208B50223C2F808334FF48270D6
:10AD7000FFF7CAFF034B01211960D2F81834DB0337
:10AD8000FBD408BD0C00004008B54FF48070FFF7FD
:10AD9000BBFF4FF080430122C3F804231A6008BDB3
:10ADA0004FF08042012108B54FF48070C2F80813BB
:10ADB000FFF7AAFF064B1960D2F80C3403F0011319
:10ADC000B3F1011FF8D0034B00225A7108BD00BF38
:10ADD0000400004064330020124B1B6810B573B1AF
:10ADE0004FF48070FFF790FF4FF080430122C3F8CB
:10ADF00008230D4B587910B95A711B6898470B4BB3
:10AE00001B6873B14FF48270FFF77EFF4FF08043F1
:10AE10000222C3F80823044BBDE810401B68012040
:10AE2000184710BD000100406433002004010040B9
:10AE300000F1804000F5C040002382B00360036849
:10AE40000193019B02B0704703681F2B83BF03F07F
:10AE50001F03036001484FF0A040704700030050FB
:10AE600007B5019001A8FFF7EFFF019B00EB8300FE
:10AE7000D0F8003723F44033C0F80037D0F800375B
:10AE800043EA0141C0F8001703B05DF804FB00007D
:10AE90002DE9FF470024CDE90244584D4FF480725C
:10AEA000012102F1804303F5C04390B21B68012BDE
:10AEB00006D1D5F804330B4202D0FFF7B9FF0C439B
:10AEC0000432B2F5907F4FEA4101EAD14C4B1B6846
:10AED000012B11D14FF4BE70FFF7AAFF4FF0A04332
:10AEE00044F00044D3F820250292C3F82025D3F87B
:10AEF00020280392C3F8202814F0FF0F1AD0414FE6
:10AF000000250126344210D0AB0003F1804303F545
:10AF1000C043D3F81005D3F8101557F8253023B1E6
:10AF2000C1F30141C0F3052098470135082D4FEAD0
:10AF30004606E7D1002C59DA324D334C334E4FF0F0
:10AF40000008012716F9013B5A1C3CD0C3F3C2018B
:10AF500004A801445FFA83F911F8081C03F03F02CA
:10AF600003F0070307FA03F319422CD001A801925A
:10AF7000FFF76AFF019B03F5E07350F82330C3F33A
:10AF8000014ABAF1020F10460CBF03210221FFF75C
:10AF900067FF01A80192FFF757FF019B07FA03F330
:10AFA000C0F82035AB1893F9303055F8233053B141
:10AFB0004FEA9911032904D0BAF1020F19D10129DE
:10AFC00001D11046984708F10108B8F1040FB9D132
:10AFD0004FF0A043D3F820250292C3F82025D4F8DF
:10AFE00020350393C4F820351343A7D104B0BDE83E
:10AFF000F087BAF1030FE6D10229E1E700600040D3
:10B000007C6100407033002000030050D0330020EA
:10B01000014B1B68184700BFDC330020F7B50679E9
:10B020002F4D0C237343EF183C7A002C55D1EA5076
:10B030004B687B60477903682246A446D4B2A74296
:10B040003CD8CA7843F307345201002CC3F30733CA
:10B05000D2B23DDB234F07EB040C8CF80023012216
:10B06000640903F01F0302FA03F347F8243003686E
:10B070004A78D3F8040502F0030220F003000243EB
:10B08000C3F80425D3F808058A7820F0030002F0FD
:10B0900003020243C3F80825D3F810050A7820F00C
:10B0A0000F0102F00F020A43C3F810250C2303FB23
:10B0B000065501232B72002003B0F0BD940004F567
:10B0C000A074013243F804C01C590194019CB5E7F7
:10B0D000054C03F00F03E254C9E70820ECE700BF7A
:10B0E000E433002000E100E014ED00E003680122F9
:10B0F0001A600379034A0C2101FB032302221A720E
:10B10000704700BFE433002003680122DA60704713
:10B1100037B54FF4803400688C407BB18B0003F569
:10B12000A0730025C550C3580193019BC0F8044388
:10B1300001F5A87140F8212003B030BDC0F80843E4
:10B14000F6E770B4046840F20116D4F800528E405D
:10B1500025EA0605C4F80052D4F800522B43C4F87F
:10B1600000329DF80C3070BCFFF7D2BF2DE9F341DF
:10B17000104C114F114E00254FF48038236883B1D5
:10B18000D7F8043308FA05F21A420AD000232360E4
:10B190002368019304F5E040019B80B2D6E90031B9
:10B1A00098470135042D04F10404E7D102B0BDE84D
:10B1B000F08100BF4091004000900040E433002047
:10B1C000064B1868043B1B68082B04D103288CBF6E
:10B1D0000020012070470020704700BF340100109C
:10B1E0004B6810B59A420C6828BF1A46C0E9004265
:10B1F000981A0B6848601A4400380A6018BF01208A
:10B2000010BD30B54C680B68A24228BF2246002A08
:10B2100014BF1D460025C0E90052A4EB02041A44E5
:10B220004C600A6014BF0120002030BD054B10F0B7
:10B23000800FA3F1900208BF134600F00F0003EB4C
:10B24000001070476435002010F0800F14BF0023F9
:10B25000102300F00F0018447047000008B5FFF7F6
:10B26000AFFF10B1034B00221A60034B00221A708B
:10B2700008BD00BF1C7C0240F133002007B5094A1D
:10B2800000231370084AADF8053013708DF80730AD
:10B2900001238DF80430054B01A81B68984703B0C3
:10B2A0005DF804FBF0330020F8350020F435002071
:10B2B000704700002DE9F8434C689C4280460E46DA
:10B2C00091461D4618D21248124F13493F1AFF08E3
:10B2D0003F0423462A4647F00400FCF77AFB00238C
:10B2E000C8F804303368C8F800304D450DD1201E31
:10B2F00018BF0120BDE8F88343600B6803600B684A
:10B30000641B2B444C600B60EFE70020F2E700BFAA
:10B3100038F9020068F902003C030300F8B54B68F5
:10B320000B4F93420C4628BF134606461A4609683F
:10B3300038461D4603F030FF60682268401BC6E9AE
:10B3400000752A4460600038226018BF0120F8BDF3
:10B35000FC350020F8B54B68934228BF13460646DB
:10B360000D461C468BB10A4F09681A46384603F051
:10B3700013FF37606B6874601B1B6B602B68201EAB
:10B3800023442B6018BF0120F8BD0360F2E700BF23
:10B39000FC35002007B500238DF804300B4BD3F8A3
:10B3A0002025ADF80620D3F8C034094A002B1368D5
:10B3B0000CBF4FF480714FF001210B431360054B1C
:10B3C00001A81B68984703B05DF804FB00700240B9
:10B3D000D0340020F435002008B50E480E4B0F493C
:10B3E000C01AC008000440F00400FCF7E5FAFFF7BB
:10B3F00035FF0B4B93F89E20032A06D1BDE8084089
:10B4000008486FF00101FFF773BCD3F89030002BB0
:10B41000F4D008BD68F9020038F9020065030300A2
:10B42000D434002060340020FFF7D6BF10B5124B93
:10B430001249044612481B1ADB081B0443F004009F
:10B440002246FCF7BDFAFFF709FF2046FFF7EEFEA4
:10B45000837B032B0BD12046FFF7F6FE012303FA73
:10B4600000F0C143BDE810400648FFF741BC036847
:10B47000002BF0D010BD00BF68F902007E0303006E
:10B4800038F90200603400208720FFF7CFBF862004
:10B49000FFF7CCBF8520FFF7C9BF8420FFF7C6BFE9
:10B4A0008320FFF7C3BF8220FFF7C0BF8120FFF7D3
:10B4B000BDBF00002DE9F3412C4B2D4CDFF8CC80B3
:10B4C000E41AE408240444F00404024606460D4647
:10B4D00020462849FCF774FA274A0127136807FA1F
:10B4E00005F52B4316F0800F13602ED006F00F02E7
:10B4F000224B33F8123003F1804303F51C331A68F2
:10B5000052B100221A60BFF36F8FBFF34F8F802EAE
:10B5100018D03046FFF78AFFD8F800100D400ED142
:10B5200017492046FCF748FA06238DF804308DF8B9
:10B5300006608DF80750134B01A81B68984702B0AE
:10B54000BDE8F081FFF748FFE6E7D8F800301D427C
:10B55000F5D10D492046FCF72FFA06238DF804306B
:10B560008DF806608DF80770E5E700BF38F9020036
:10B5700068F902009A030300D03400208C0703000E
:10B58000B7030300F4350020DD030300603400201E
:10B5900008B5054B1A781046FFF756FEBDE808407F
:10B5A00001461046FFF786BFF835002007B5174B58
:10B5B00017481849C01AC0080004882240F0040047
:10B5C000FCF7FEF9FFF74AFE134B93F81E21032AFE
:10B5D00007D112486FF48071FFF78AFB03B05DF862
:10B5E00004FBD3F81031002BF8D16FF480710B48B5
:10B5F000FFF77EFB06238DF804308823ADF8063074
:10B60000074B01A81B689847E8E700BF38F902001C
:10B6100068F9020003040300D434002060340020E1
:10B62000F435002007B5134B13481449C01AC0085D
:10B630000004082240F00400FCF7C2F9FFF70EFEF8
:10B640000F4B93F88E20032A11D0D3F8803073B9B2
:10B650000C486FF08071FFF74BFB06238DF8043028
:10B660000823ADF80630084B01A81B68984703B0C3
:10B670005DF804FB38F9020068F9020022040300B7
:10B68000D434002060340020F43500203D4B13B545
:10B69000D3F80044C3F80044BFF36F8FBFF34F8F5C
:10B6A000BFF36F8FBFF34F8FE00709D53648374B95
:10B6B0003749C01AC008000440F00400FCF77CF9C8
:10B6C000E10518D5314B30483249C01AC008000492
:10B6D00040F00400FCF770F92F4B01221A70002390
:10B6E000ADF805308DF8073002238DF804302B4B70
:10B6F00001A81B689847A20517D5244B2248284962
:10B70000C01AC008000440F00400FCF755F9224AB2
:10B7100000231370ADF805308DF8073003238DF842
:10B7200004301E4B01A81B689847630528D5174BAA
:10B730001548194C1B4A2178C01AC0081A4B00043E
:10B74000002918BF1A4640F004001849FCF738F9E0
:10B750002378ABB10B49012200232370C1F80825DF
:10B760008A65BFF36F8FBFF34F8FADF805308DF84B
:10B77000073004238DF80430084B01A81B68984754
:10B7800002B010BD0070024068F9020038F90200F2
:10B79000370403004D040300F0330020F43500208B
:10B7A000610403007F0403007404030086040300A3
:10B7B0002DE9F04F744B754EF61A754B8BB0F608A9
:10B7C0001A780493360446F00406002A40F0D98023
:10B7D000DFF8ECB1DFF8BCA16E4BDBF800101C68A1
:10B7E000214002D10BB0BDE8F08F11F001246CD0E4
:10B7F00094FAA4F4002C6ED0B4FA84F40F2C6CD913
:10B80000A4F11005EDB22846FFF710FD4FFA85F9B7
:10B8100005F00803B9F1000F8289039380465FDACF
:10B82000D0E9003108A8984708B9C8F80000FFF728
:10B83000C7FC10B1584B82221A60049B0121197079
:10B84000A140DAF80040099B24EA01012A46CAF81F
:10B85000001030465149FCF7BCF8D8F80830099A76
:10B86000089803991344B9F1000FC8F8083005F09F
:10B870000F054B4B76DA00296CD0C3F8A006C3F84D
:10B88000A426042303EB850303F1804303F51C3353
:10B8900001221A60BFF36F8FBFF34F8F414B424AB3
:10B8A000424913EA290938BF914639F8153003F1A6
:10B8B000804303F51C331A6812B90A68002AFAD0CB
:10B8C0003B493046FCF778F88CE791FAA1F111B1C9
:10B8D000B1FA81F492E7202492E744F0800592E7E0
:10B8E000039B2F497BB3D1F8C03413F4803F18BFBA
:10B8F0000023D8F80410D8F80070059308A8B847BA
:10B90000089A002A90D0099A059B9A428CD20092FC
:10B9100030462A462749FCF766F801214FF0020914
:10B92000A14088F80E90C9435846FFF7E1F9062375
:10B930008DF81C30204B8DF81E501B688DF81F9021
:10B9400007A8984748E705F00F0303F5947351F8EB
:10B950002330CEE7142101FB0533C3F80006C3F8FA
:10B9600004268EE729B1C3F8A007C3F8A42728232B
:10B9700088E7142101FB0533C3F80007C3F8042747
:10B98000F5E70E499DE700BF38F9020068F90200AB
:10B99000F1330020D03400201C7C0240C10403009D
:10B9A000007002408C070300A807030000710240EA
:10B9B000F80403009D040300F4350020140503007F
:10B9C0006034002038B5184BD3F86C44C3F86C448D
:10B9D000BFF36F8FBFF34F8F144B15481549C01A33
:10B9E000C0080004224640F00400FBF7E9FF0125EF
:10B9F0001CB9BDE83840FFF7DBBE94FAA4F171B181
:10BA0000B1FA81F30F2B19460BDDA1F11000C0B282
:10BA100005FA01F324EA0304FFF74CFDE8E72021CF
:10BA2000F3E743F08000F3E70070024038F90200CA
:10BA300068F902003305030037B51D4B1D49044664
:10BA40001D48C01AC0080004224640F00400FBF75D
:10BA5000B7FFFFF703FC2046FFF7E8FB837B032BD0
:10BA60000DD12046FFF7F0FB012303FA00F0C1439C
:10BA70001248FFF73DF9FFF79BFE03B030BD0568A4
:10BA8000002DF8D12046FFF7DFFB012303FA00F079
:10BA9000C1430A48FFF72CF906238DF80430084B00
:10BAA0008DF806401B688DF8075001A89847E2E71B
:10BAB00038F902005405030068F9020060340020E0
:10BAC000F43500200720FFF7B7BF0620FFF7B4BF0B
:10BAD0000520FFF7B1BF0420FFF7AEBF0320FFF73B
:10BAE000ABBF0220FFF7A8BF0120FFF7A5BF0000F2
:10BAF000024A00231360024A13707047F435002095
:10BB0000F23300205C4B4FF4006213B5C3F80024FD
:10BB1000BFF36F8FBFF34F8F584B1B68082B1DD19E
:10BB2000574B1B68032B19D8564AD35CB3B100237B
:10BB30000DF107008DF80730FCF716FB524B534A06
:10BB400018680321002840F08F8049F27530186092
:10BB5000116018609DF80700FCF72AFBFFF730FB27
:10BB6000A8B100230DF107008DF80730FCF7FCFAAF
:10BB7000454B474A1868C021002877D149F27530F3
:10BB80001860116018609DF80700FCF711FB3A4B34
:10BB90000122C3F80025BFF36F8FBFF34F8FD3F897
:10BBA00000241205FBD54FF40062C3F80024BFF354
:10BBB0006F8FBFF34F8FFFF703FBA0B10DF10700AD
:10BBC00000248DF80740FCF7CFFA2F4B304A186855
:10BBD00000284DD149F275311960106019609DF847
:10BBE0000700FCF7E5FAFFF7EBFA48B1294B40F202
:10BBF000E3721A6040225A60BFF36F8FBFF34F8F1A
:10BC00001D4B00248022C3F81C25C3F83045224B6D
:10BC100040F2FF121A60214B1C60FFF71FFB204B04
:10BC20001C70204B02221A70144B1B68082B19D170
:10BC3000134B1B68032B15D8124AD35C93B10DF13B
:10BC400007008DF80740FCF78FFA0F4B0F4A186872
:10BC500080B949F275311960106019609DF80700CC
:10BC6000FCF7A6FA02B010BD116073E711608AE715
:10BC70001460B4E71460F1E7007002403001001076
:10BC8000340100107E07030000EC064014ED06406E
:10BC900014EC064000780240D034002060340020CC
:10BCA000F8350020F23300200C4B00221A700C4BA8
:10BCB0000C4A00280CBF184610460B4B0B4AC3F821
:10BCC0000403C02182F82713802151600122C3F8A8
:10BCD0000425BFF36F8FBFF34F8F7047F033002001
:10BCE0000714C0010714E0010070024000E100E009
:10BCF000024B1878003818BF01207047F23300203B
:10BD0000034B1878012894BF00200120704700BF22
:10BD1000F233002037B500250DF107008DF80750EC
:10BD2000FCF722FA114B1B7803F0FF049BB1104A79
:10BD3000D2F82C35C3B1C2F82C55FFF741FA50B1F7
:10BD40000C4B0D4A1C68C02164B949F275341C6063
:10BD500011601C6004469DF80700FCF729FA204694
:10BD600003B030BD1160F5E71C46F4E7F033002066
:10BD70000070024000EC064014EC0640024B034AFF
:10BD8000C3F80823704700BF00700240041480010C
:10BD9000024B034AC3F80423704700BF00700240FF
:10BDA00004148001014B00221A707047F033002008
:10BDB00008B5FFF73BFA818108BD000073B51D4B44
:10BDC0001C78002C33D11C4A106001221A702546C1
:10BDD000264615F0080F65F07F00C0B20CBF402169
:10BDE0004FF400710190FFF7E3FF0198FFF71EFA8F
:10BDF0000135092D867306608660EAD14021002551
:10BE00002046FFF7D5FF2046FFF710FA0134E4B2D1
:10BE1000092C85730560856002D1002002B070BDD9
:10BE200014F0080F14BF4FF400714021E8E7082018
:10BE3000F4E700BFF2330020F435002008B5FFF727
:10BE4000F5F9808908BD0000064A10F0800F00F067
:10BE50000F0314BFD2F81005D2F81405D84000F033
:10BE600001007047007002402DE9F04385B00D4697
:10BE70000190FFF7E9F9002306460DF10F008DF858
:10BE80000F30FCF771F9019A12F00F0116D13F4BF8
:10BE90001B78934212D03E4B3E483F49C01AC0081F
:10BEA000000440F00400FBF787FD10249DF80F000C
:10BEB000FCF77EF9204605B0BDE8F083374B1C68DF
:10BEC000374B012000FA06F6E4431868A4B2044395
:10BED000344099460BD02E4B2E483249C01AC00828
:10BEE000000440F00400FBF767FD1124DEE7104674
:10BEF0000192FFF79BF9019A4FF00C0813060746D1
:10BF000008FB01F83CD5284BA96822489844204BEF
:10BF100001F0010EC01AD5E90013C00801F0604C11
:10BF20000004BCF1005F40F004001ED1BEF1000F20
:10BF300017D11E4939601E49FBF74BFD95E80700F4
:10BF4000002388E80700D9F80000BB60BB73194BD9
:10BF5000C7F8048006438022C9F80060C3F80421B2
:10BF6000A4E7154939601549E6E7BEF1000F03D192
:10BF7000134939601349DFE7134939601349DBE797
:10BF8000134B9844134B0360D8E700BFF8350020EB
:10BF900038F9020068F9020066050300D034002079
:10BFA000603400208405030064340020E1B1020005
:10BFB000A005030000E100E003B20200D405030085
:10BFC0001DB302000C06030055B302004206030035
:10BFD000F4330020B5B202002DE9F74306460F46C0
:10BFE000FFF732F9002304460DF107008DF8073002
:10BFF000234DFCF7B9F8234BED1AED082D04330758
:10C0000045F0040510D1204B1B78B3420CD01F49DA
:10C010002846FBF7D1FC10249DF80700FCF7C8F870
:10C02000204603B0BDE8F083194BDFF8749001217E
:10C03000A1401C68D9F80080E443A4B244EA080493
:10C040000C4005D013492846FBF7B6FC1124E3E762
:10C050003046FFF7EBF83B68036048EA01017B6874
:10C06000436084608473C9F8001032460A49284648
:10C07000FBF7A6FC094B8022C3F80421CCE700BFE4
:10C0800068F9020038F90200F83500207C06030048
:10C09000D0340020840503009806030000E100E08E
:10C0A0006034002000487047FC35002010B50B4B71
:10C0B0000B4904460B481B1ADB081B04224643F0BD
:10C0C0000400FBF77DFC084B44F48074C3F818456A
:10C0D000BFF36F8FBFF34F8F10BD00BF68F9020031
:10C0E000C606030038F9020000700240020713D4AC
:10C0F00000F00F0310F0800F084A0BBF03F58873A0
:10C1000003F5847302EB830352F8230008BF5868D9
:10C11000431E58425841704700207047007002404B
:10C12000064BC3F80C05BFF34F8F40F48070C3F883
:10C130000C05BFF36F8FBFF34F8F70470070024045
:10C1400010B508220021044603F04FF80E4BD3F837
:10C1500080242270D3F884246270D3F88824D3F822
:10C160008C1442EA01226280D3F89024D3F894140C
:10C1700042EA0122A280D3F89824D3F89C3442EA00
:10C180000323E38010BD00BF00700240034B012277
:10C190001A60BFF36F8FBFF34F8F70474C70024030
:10C1A00013B5154B15481649C01AC008000440F0D5
:10C1B0000400FBF701FCFFF751F8124B9A7B032AAE
:10C1C00006D111486FF48031FEF792FD02B010BD28
:10C1D0001C6874B96FF480310B48FEF789FD0623A3
:10C1E0008DF80430094BADF806401B6801A898474C
:10C1F000ECE7FFF7CBFFE9E738F9020068F9020046
:10C20000DA060300D434002060340020F435002026
:10C2100008B50948094B0A49C01AC008000440F093
:10C220000400FBF7C9FB074B01221A60BFF36F8FB5
:10C23000BFF34F8F08BD00BF68F9020038F9020054
:10C24000F40603005070024008B50948094B0A493A
:10C25000C01AC008000440F00400FBF7ADFB074B18
:10C2600001221A60BFF36F8FBFF34F8F08BD00BF6D
:10C2700068F9020038F90200040703005470024014
:10C28000014B1878704700BFF835002013B5002324
:10C2900004460DF107008DF80730FBF765FF2046D7
:10C2A000FEF7D2FF0D4901220B6802FA00F023EAE3
:10C2B000000314F008020B600AD104F00F04084BCD
:10C2C00004F5947443F82420BFF36F8FBFF34F8FAE
:10C2D0009DF80700FBF76CFF02B010BDD0340020C2
:10C2E00000700240F7B5002304460DF103008DF8FD
:10C2F0000330FBF739FF2046FEF798FF054620463E
:10C30000FEF7A2FF012314F0800F2B4E03FA00F377
:10C3100018D1326833EA02010AD02046FFF7B6FF8F
:10C320000323AB739DF80300FBF742FF03B0F0BD9E
:10C3300022EA030229603260204A106820EA0300E2
:10C340001060EDE7220711D4802C1D481D4A29D02A
:10C3500004F00F0101F2DA31490001601168106840
:10C36000C9B241F0020101431160126813493268F9
:10C37000086862EA00071F42D4D022EA0302184389
:10C38000002332602B600323AB738DF807300E4B14
:10C39000086006221B688DF804208DF8064001A86D
:10C3A0009847BFE740F2B471016011681068C9B2E4
:10C3B00041F00401D7E700BF60340020D0340020F2
:10C3C0000078024004780240F4350020FFF78ABF6D
:10C3D000F0B52F4B2F4D304CD5F88024E41AD5F80A
:10C3E0008434D5F88814D5F88C74D5F89004D5F831
:10C3F00094C4D5F89864D5F89CE4E40887B046EA7C
:10C400000E2640EA0C2041EA07212404B6B280B28D
:10C4100089B244F00404029601900091DBB21F49F6
:10C420001F4FD2B22046FBF7F8FAD5F880641D4DB5
:10C4300038782B68DA431C4B1B6892B21A43FEF71C
:10C4400003FF012303FA00F0104206D020461749EB
:10C45000FBF7B2FA3878FFF745FF6FF0011106F0ED
:10C46000800611483E70FEF743FC2B6843F0010341
:10C470002B600023ADF815308DF8173005238DF8AB
:10C4800014300B4B05A81B68984707B0F0BD00BFE0
:10C4900038F902000070024068F902001307030037
:10C4A000F8350020D0340020603400204A07030013
:10C4B000F43500201C4BD3F8041300232DE9F04180
:10C4C00001241D4671B9194F03F4000623F400043A
:10C4D0004FF00108D4B9FFF76BF91EB3BDE8F04186
:10C4E000FFF776BF91FAA1F21148B2FA82F29600F4
:10C4F000304404FA02F206682EB10560BFF36F8F74
:10C50000BFF34F8F134321EA0201DBE794FAA4F54E
:10C51000B5FA85F557F8253008FA05F5984724EA65
:10C520000504D7E7BDE8F08100700240BC070300B6
:10C5300000710240F8B5134E134A34681268240C97
:10C540002404144301271CB940F2FF133360F8BDE3
:10C5500094FAA4F585B1B5FA85F30F2B1D460DDDD0
:10C56000A5F11000C0B2030701D4FFF7BBFE07FA24
:10C5700005F524EA0504E6E72025F1E743F080000D
:10C58000F1E700BFD03400206034002038B50E4CF5
:10C590008025C4F8845163681B0613D5FFF7CAFFD2
:10C5A0000A4B0022C3F80425BFF36F8FBFF34F8FF0
:10C5B000C4F88450BFF34F8FBFF36F8F4FF0FF323B
:10C5C000C3F8082338BD00BF00E100E0007002405E
:10C5D00008B5FFF7DBFF094BD3F80423C3F80823A2
:10C5E0000022C3F80025BFF36F8FBFF34F8FFEF714
:10C5F00035FE034B01221A7008BD00BF00700240D7
:10C60000F233002013B500230DF107008DF8073039
:10C61000FBF7AAFD0F4B1B7803F0FF043BB9002486
:10C620009DF80700FBF7C4FD204602B010BDFFF7E0
:10C6300081FF094AD2F8003413F40073EFD10121CD
:10C64000C2F82C15D2F80014890544BFC2F82C3565
:10C650001C46E5E7F03300200070024038B5044680
:10C6600004F00F05FFF73EFE64B2124A002C4FF0B3
:10C670000103B4BFD2F81015D2F8141503FA05F36C
:10C680006FEA0303B5BF0B400B40C2F81035C2F888
:10C690001435BFF36F8FBFF34F8F074B074810EA76
:10C6A000240438BF1C460123625D9340014AC2F84E
:10C6B000083338BD007002409E0703008207030064
:10C6C00037B5264A264B45B2002DA8BF134600F0C9
:10C6D0000F010446585C234A4FF0010303FA00F0AF
:10C6E000C2F804032EDAD2F81005C840C00727D4D8
:10C6F000D2F810058B400343C2F81035BFF36F8F9B
:10C70000BFF34F8FE1B1002D1ADB14F0080317D1EE
:10C710000DF107008DF80730FBF726FD2046FFF7E7
:10C72000B5FD2046FEF790FD0F4901220B6802FA85
:10C7300000F023EA00039DF807000B60FBF738FDCB
:10C7400003B030BDD2F81405C840C007F8D4D2F801
:10C7500014058B400343C2F81435CFE79E0703004E
:10C76000820703000070024060340020020610B50A
:10C7700004460AD4030708D400F00F02074B9200C6
:10C780009B58012B01D1FFF781FD054BC3F81845DC
:10C79000BFF36F8FBFF34F8F10BD00BF44740240D3
:10C7A0000070024036DF70474DDF70474EDF704744
:10C7B0004FDF704750DF704710B50446FFF7F6FFB4
:10C7C00040B92046FFF7F0FF20B92046BDE81040F1
:10C7D000FFF7EEBF10BD012810B5044602D100F0EE
:10C7E000B7F8804700F0BAF8034668B10A2C07D0C2
:10C7F0000B2C07D0092C07D10220BDE810401847A8
:10C800000020FAE70120F8E710BD0000012813B569
:10C81000044603D003281AD002B010BD00230DF146
:10C8200007008DF80730FBF79FFC00F091F810B17E
:10C830002046FFF7B7FF9DF80700FBF7B9FC00F0B3
:10C840008DF80028E8D00120FFF7B6FFE4E70C4B95
:10C85000C02283F8002301221A6000F079F820B189
:10C860004FF080430422C3F8042300F077F8002837
:10C87000D2D04FF080434FF46072C3F80423CBE76B
:10C8800000E100E038B50A4D2B78044663B900F0AA
:10C890004DFF58B90748002C18BF204600F064F837
:10C8A00008B901232B7038BD8520FCE70820FAE782
:10C8B0003C3600202008030013B500240DF10700CA
:10C8C0008DF80740FBF750FC00F030FF50B12046D8
:10C8D000FFF772FF9DF80700FBF76AFC00F07AF89B
:10C8E00002B010BD00F06FF8F4E71FB50190FFF73C
:10C8F000E3FF019800F05AF800F018FF0446A0B1D9
:10C900000120FFF759FF044660B903A8FFF752FF63
:10C91000044638B9039BDB0704D500F01FF8034633
:10C9200020469847204604B010BD00F045F8F9E7CE
:10C9300000F1804382B01A68002A14BF0120002051
:10C9400004D000221A601B680193019B02B070475B
:10C95000014B1868704700BF40360020014B186833
:10C96000704700BF483600200E4B1A78C2B90278D3
:10C970004FF08041C2F34002C1F88025027802F0F6
:10C980000102C1F87825084A1168C90704D4C021FA
:10C9900082F800130121116001221A7000207047F3
:10C9A000852070474C36002000E100E0014B026812
:10C9B0001A607047483600204FF080434FF4607291
:10C9C000C3F8042370474FF080434FF46072C3F8FC
:10C9D00008237047014B00221A6070474836002038
:10C9E0004FF0804310B5D3F80443620707D54FF4E6
:10C9F0008470FFF79DFF10B11E4B1B689847A3067C
:10CA000008D54FF48A70FFF793FF18B11A4B002036
:10CA10001B689847600608D54FF48C70FFF788FFB5
:10CA200018B1154B01201B689847210608D54FF413
:10CA30008E70FFF77DFF18B1104B00201B689847E0
:10CA4000E20508D54FF49070FFF772FF18B10B4B59
:10CA500001201B689847A3050AD54FF49270FFF791
:10CA600067FF28B1054BBDE810401B68022018473E
:10CA700010BD00BF4036002044360020483600205C
:10CA800008B5FFF7ADFFBDE80840FEF7A5B9000007
:10CA9000032811D8012A0AD101290FD100F10E0271
:10CAA000D2B20D4B00EB40001A5400207047012910
:10CAB000F7D0022904D049B1072070470022F8E7D7
:10CAC000054B00EB400018444270EEE7024B00EBD0
:10CAD000400018448270E8E74D36002008B5012276
