:020000022000DC
:1070000000000420757302005D7302005F730200CC
:1070100061730200637302006573020000000000E8
:107020000000000000000000000000006773020084
:1070300069730200000000006B7302006D730200B0
:10704000BD9702006F730200599C02006F7302002B
:107050006F7302006F730200D99A02006F7302000F
:107060006F730200A5A702006F7302006F73020026
:107070006F7302006F7302006F7302006F73020080
:107080006F730200698902006F7302006F73020060
:107090006F7302006F730200FDBA02006F7302008B
:1070A0006F7302006F7302006F7302006F73020050
:1070B0006F7302006F730200000000000000000008
:1070C0006F7302006F7302006F7302006F73020030
:1070D0006F7302006F7302006F7302006F73020020
:1070E0006F7302006F7302006F73020000000000F4
:1070F000000000006F730200000000006F730200C8
:10710000000000000000000000000000000000007F
:10711000000000000000000000000000000000006F
:10712000000000000000000000000000000000005F
:10713000000000000000000000000000000000004F
:10714000000000000000000000000000000000003F
:10715000000000000000000000000000000000002F
:10716000000000000000000000000000000000001F
:10717000000000000000000000000000000000000F
:1071800000000000000000000000000000000000FF
:1071900000000000000000000000000000000000EF
:1071A00000000000000000000000000000000000DF
:1071B00000000000000000000000000000000000CF
:1071C00000000000000000000000000000000000BF
:1071D00000000000000000000000000000000000AF
:1071E000000000000000000000000000000000009F
:1071F000000000000000000000000000000000008F
:10720000354936480A1A02D0072291438D4634493F
:1072100034480A1A06D00722914381F309880222D2
:1072200082F3148830483149314A00F044F831483B
:107230003149324A00F03FF831483249324A00F0D1
:107240003AF832483249334A00F035F83248334987
:10725000334A00F030F833483349344A00F02BF811
:1072600033483449344A00F026F83448344900227F
:1072700000F02CF833483449002200F027F8334856
:107280003349091A082902DB002202604160314AB1
:1072900090471F481F49884205D00268043003B454
:1072A000904703BCF7E700208646EC46002000210B
:1072B000294A9047FEE7884207D0521A05D0037842
:1072C00001300B700131013AF9D17047884202D088
:1072D00002700130FAE770470000042000E003204C
:1072E0000000042000000420202D0300382A002084
:1072F000842A0020D0730200D0730200ACD50200B3
:10730000202D0300382A0020382A0020A8D60200A9
:10731000A8D60200A8D60200A8D60200A8D602006D
:10732000A8D60200A8D60200A8D602001F2D03008E
:107330006C2D0300842A0020842A0020842A002047
:107340000C4900200C490020104900201049002061
:10735000106900209D730200DDAE0200FEE7FEE72B
:10736000FEE7FEE7FEE7FEE7FEE7FEE7FEE7FEE7F5
:1073700000F002B8FFF7FCBF0F484FF00701884349
:1073800085460E4880470E48016841F4700101604F
:10739000BFF34F8FBFF36F8FFFF732BF09480A4922
:1073A0000A4A884207D0521A05D0037801300B7080
:1073B0000131013AF9D1704700000420099202001E
:1073C00088ED00E0A8D60200382A0020382A0020E4
:1073D00000487047044900207047000007B5044B7F
:1073E0000093044A402300F032F803B05DF804FB38
:1073F000F9730200852A00202DE9F84388461446D7
:10740000B2B10F4B0F4E0325002743F0010922466E
:1074100008EB0701002003F0A5FE0744241A48B931
:1074200033782BB14FF47A40C847013D02D1357013
:10743000BDE8F88301233370002CE8D1F8E700BFE2
:10744000B0D60200842A0020704703F0BFBEF0B51A
:1074500095B01D46164608460C4601F007FE1A9BDD
:107460000D93CDE9086500252B46082205A9204685
:107470000A958DF82C500C9501F015FE079B029390
:10748000069B03939DF814308DF8115003F003020E
:10749000012A1DD1BDF81420059DC3F3C203C2F318
:1074A00083168DF81030B20008230EA9204601F093
:1074B000FAFDC5F3952508AB0093324602AB0EA941
:1074C000284600F089FB204601F0D4FD15B0F0BD40
:1074D000022AF8D1BDF81650C3F3C203C5F38915CB
:1074E0008DF810300827082D2E4628BF08263B4669
:1074F00032460EA9204601F0D6FDAD1B08AB02AA0C
:1075000031460EA8374400F0CBFB002DEBD1DAE773
:1075100008B5FFF79AFF0448042100F0C7FA034BAF
:1075200001225A7108BD00BF98D60200382A0020F7
:10753000037813F0040216D003F00303012B03D0E9
:10754000022B09D0012070470A6800880232C0F37C
:10755000831002440A60F5E70B684288023303EBAC
:1075600092130B60EEE71046704700002DE9F04FD4
:1075700087B000230446861C0DF107000F46154610
:107580008DF8073001F082F8404A516839609368FD
:1075900003F580735B1A924602F21C4702F5836979
:1075A00002F21448B3421AD30020002D69D004F02F
:1075B0000F039B0143F0050363F30F00DAF8043077
:1075C000DAB203321E444AF822009DF80700CAF8D6
:1075D000046001F07FF8012007B0BDE8F08F0121C1
:1075E000384601F076FA484601F08BFA404601F041
:1075F00088FADAF808000290C0B203300AEB800083
:1076000002A9FFF795FF029B30BBDAB20AEB8202B8
:10761000D16803919A1C0133DBB20AEB8303029217
:10762000D3F80CB001F00303012B22D0022B15D0AC
:107630008346404601F068FA10B1029BCAF8083050
:107640005946384601F045FADAF80830DAF80420ED
:1076500003F580739B1AA5E7D8B2CEE7BDF80E30CC
:10766000C3F3891303334FEA1B4B02EB93030293DB
:10767000DFE7BDF80C30C3F383134FEA1B4B134411
:10768000F5E7A40544F0060098E700BF982B00201A
:10769000064B074810B501221A7001F0A0FC044601
:1076A00010B9044801F009FD204610BD982B0020B8
:1076B0004CD60200ECD6020030B50A4C71B10A4A31
:1076C0000A49121BD20800239A4201D1002030BD82
:1076D00031F82350854202D00133F5E7034654F8D0
:1076E0003300F4E7B4D502004CD60200382A00205B
:1076F000094B013903EBC000032909D8DFE801F089
:107700000A020406042070470079704740797047E8
:107710000020704702207047B4D50200034BD3E924
:107720000130C31A58425841704700BF982B0020BF
:107730002DE9F04186B0FFF7F1FF0546002840F043
:10774000E680744CC4F81804BFF34F8FA36802930B
:10775000DBB2033304EB830002A9FFF7E9FE029BCF
:1077600018B1D4F81824002A55D0DAB2991C013384
:1077700004EB8202DBB204EB8303D268DB68049380
:1077800002F00303022B039202914FD1BDF80E3099
:107790006148C3F38917502F3E4628BF502666F331
:1077A0008F1306F10801ADF80E3001F030FC0546EC
:1077B000002800F0978001F059FC002303A908225B
:1077C000284601F066FC0299CB43DBB20133C9B213
:1077D0000331B6EB830F4FEA830804EB810122D912
:1077E00008234246A6EB0806284601F052FCF6B2F2
:1077F0004A4908F108033246284601F04AFC029B38
:10780000033703EB97070297D4F81834002B41D1C4
:10781000D4F8106451E062689A4299D8A260284670
:1078200006B0BDE8F08108233246E5E7012B59D1C7
:10783000BDF80C303848C3F38311062928BF062150
:1078400061F3891302318900ADF80C3001F0DFFBE0
:107850000546002846D001F009FC0023082203A9B0
:10786000284601F016FC0026BDF80C20C2F3831256
:10787000B300964203F10803C6D202994A1CC9B26A
:107880000331029204EB81010422284601F001FC3D
:107890000136E9E7284601F0EDFBFFF73FFF80F0F6
:1078A0000100C5B2BBE7F3685B7923B133682946B1
:1078B0001B6830469847F3681E68002EF3D12846AF
:1078C00001F0D8FB0DF107008DF8076000F0DEFE37
:1078D000D4F818340BB9029BA3609DF8070000F0A0
:1078E000F9FEDAE7D4F8104454B90D4B0D480E49AF
:1078F000C01AC008000440F0020000F05DF8CCE7B8
:10790000236820469B689847E3681C68ECE70025DD
:1079100085E700BF982B00204CD60200A42B002046
:10792000B4D50200E4D50200D4D602002DE9F34715
:1079300004460E46924601A9012218469946FFF7D1
:1079400015FE1B4F10B3019D4FF00008AA1CC8453F
:1079500008EB020123D11748002101F097F880F3CA
:107960001000000440EA1440E4006B1C04F03804EA
:10797000DBB2EDB244F0010407EB8303033544EAC4
:10798000881444EA8624D86047F825403B781BB128
:10799000FFF7CEFE0028FBD102B0BDE8F087C9B2E8
:1079A00007EB81015AF82830CB6008F10108CEE7D7
:1079B000982B0020B42F002000231A46FFF7B6BFF3
:1079C00007B50123019201AAFFF7B0FF03B05DF8EC
:1079D00004FB07B5CDE9002302236A46FFF7A6FFA3
:1079E00003B05DF804FB1FB5CDE90123069B0393AB
:1079F00001AA0323FFF79AFF05B05DF804FB00001E
:107A00002DE9F7430446D01C8846164601A90022FA
:107A10008008FFF7ABFD234D80B3019FB81C019098
:107A2000C0B2C0F58073B6EB830F00F103004FEADC
:107A3000830905EB80002AD83246414605F0EBF970
:107A40001948002101F022F880F310007B1CDBB202
:107A5000FFB2220C05EB8303033742EA0040E40047
:107A6000D86004F0380455F8273044F0020444EAA2
:107A7000865203F47C131A4345F827202B781BB158
:107A8000FFF756FE0028FBD103B0BDE8F0834A465D
:107A9000414605F0C0F9A6EB090208EB090105F122
:107AA0000C00CBE7982B0020B42F002030B50F49F5
:107AB000D1F8102403460020144634B9DC68207144
:107AC0004AB9C1F81034226030BDE4682579854296
:107AD00006D02468F1E7D268116821601360F3E7EB
:107AE00001300A28E8D14FF0FF30EDE7982B002055
:107AF000084A38B50123D2F8104413701D4604B962
:107B000038BDE3685D71236820465B689847E36889
:107B10001C68F4E7982B002007B503460846197A3D
:107B2000052911D05B7A2BB1094A0A49019001F06D
:107B30004EF801980849019001F049F8019803B006
:107B40005DF804EB01F038B8002AF8D0F2E700BF86
:107B5000F8D60200FDD602003BDE020030B5C38835
:107B600085B004460D4633B1144A00921449154AB3
:107B7000284601F02CF8217A05291DD0637A4BB1F3
:107B8000A088FFF7B5FD104B104953F82020284678
:107B900001F01DF8227A0E4BA08853F822200392A0
:107BA0000021FFF789FD039A0A490346284605B0DC
:107BB000BDE8304001F00BB805B030BDF8D602008A
:107BC00008D7020000D7020084D70200FDD60200C9
:107BD000A8D7020020D702002DE9F04385B01F4648
:107BE0000C9D002395F80C902B7306460C4690468E
:107BF00029463846FFF7B2FFB8F1060F09D8DFE88B
:107C000008F00412181F283340003146284600F0BF
:107C1000DEFF002229463846FFF77EFF85F80C90EC
:107C200005B0BDE8F08322683146284600F0CFFF5A
:107C3000EFE7D4E900233146284600F0C8FFE8E723
:107C4000A36800933146D4E90023284600F0BFFF23
:107C5000DFE7E3680193A36800933146D4E900238A
:107C6000284600F0B4FFD4E723690293E368019348
:107C7000A36800933146D4E90023284600F0A7FF0B
:107C8000C7E76369039323690293E3680193A368D9
:107C900000933146D4E90023284600F098FFB8E766
:107CA00008292DE9F74F80460E4617461C463CD85A
:107CB000002593F80C901D7319461046FFF74EFFF0
:107CC000DFF888A0DFF888B0AE4231D918F8052077
:107CD0005946204600F07BFF0135082DF4D11949A3
:107CE000194DDFF870A0204600F071FF4FF0000B37
:107CF0005E4522D918F80B207E2A05D8104601923D
:107D000005F014F8019A00B92E225146204600F0E1
:107D10005EFF0BF1010BBBF1080FE9D101222146F7
:107D20003846FFF7F9FE84F80C9003B0BDE8F08FF9
:107D30005146204600F04BFFCEE72946204600F092
:107D400046FFE6E734D7020032D7020030D7020000
:107D50002AD7020036D70200C30710B507D4F02394
:107D6000054A4008145C23401943115410BD090111
:107D7000C9B20F23F4E700BF8030002030B5094BB3
:107D80001C78094B196800239C4202DC0022104633
:107D900030BD11F83350854201EBC302F7D00133F7
:107DA000F2E700BF50300020A030002013B5044699
:107DB0000191FFF7E3FF38B143682BB101992046E9
:107DC00002B0BDE81040184702B010BD034B044894
:107DD00019680022490800F05CBA00BF5430002046
:107DE0005830002010B5C0B2FFF7C8FF0446007835
:107DF00001F064FE63785A1E53425341834208D116
:107E0000044BD3E90023134303D1BDE81040FFF72F
:107E1000DDBF10BD7830002037B54308354AD35C4C
:107E2000C2074CBF1B0903F00F0304460D46042B89
:107E300035D8DFE803F003252C383C0079B3012165
:107E4000FFF78AFF00230DF107008DF8073000F0DF
:107E50001DFC0120A4F12003C4F12001264A20FAD0
:107E600001F100FA03F30B43A040D2E900412043A3
:107E70000B43C2E900039DF8070000F02BFC0EE065
:107E8000002918BF02212046FFF766FF07E041B135
:107E90000321FFF761FF01212046FFF787FF03B0B1
:107EA00030BD0121EFE70029F9D10421EBE709B149
:107EB0000321E8E7FFF750FF29462046FFF776FF4A
:107EC0000DF107008DF8075000F0E0FB0120A4F150
:107ED0002003C4F12001084A20FA01F100FA03F35B
:107EE0000B43A040D2E9004124EA000021EA030349
:107EF000BFE700BF80300020783000202DE9F0413E
:107F0000124E134F00243378A34208DC114BD3E9FF
:107F10000023134318D0BDE8F041FFF757BF3D6879
:107F200005EBC40815F8340001F0C8FD98F80130DD
:107F30005A1E53425341181A4142414115F8340028
:107F4000FFF76AFF0134DEE7BDE8F0815030002022
:107F5000A030002078300020092AF7B505460C46ED
:107F600016463CD901F0DAFCD8B11E4B1E481D6004
:107F70001E4B1F4F1C701F4B002120221E6004F05F
:107F800073FF1D4B00200021C3E90001013CE4B256
:107F90000326FF2C0BD1194A1948002100F06EF975
:107FA00003E001F075FC0028DFD003B0F0BD9DF8C0
:107FB000063015F834008DF8046005EBC40223F098
:107FC00007038DF8063001A993788DF805303A46FD
:107FD00001F0AEFC013CE4B20028DAD0E5E707206E
:107FE000E3E700BFA03000208030002050300020A8
:107FF000E57D02005430002078300020FD7E020034
:10800000C8D7020070B5084D084E00242B789C425A
:1080100001D3002070BD3368012113F8340001F052
:1080200003FD0134F2E700BF50300020A0300020F3
:108030001FB50021039001AA44F20100CDE901110E
:1080400000F004F805B05DF804FB000010B572B64E
:10805000FFF74EFDFFF76CFB0028FBD1104B114CD6
:108060001149E41AE408240444F00100FFF7A4FCD9
:108070000E4B1B68DB0700D500BE0D4944F0020023
:10808000FFF79AFCBFF34F8F0A490B4BCA6802F403
:10809000E0621343CB60BFF34F8F00BFFDE700BF2B
:1080A000B4D50200E4D50200CCD70200F0ED00E028
:1080B000D8D7020000ED00E00400FA0549B152B142
:1080C000531E1A4007D1826001608380C26010464F
:1080D00070470E2070470920704710B58468C26849
:1080E0008388121B934208D3C26813400268D1549C
:1080F000C3680133C360002010BD0420FCE7826820
:10810000C3689A420AD08268838813400268D35CAD
:108110000B7083680133836000207047052070472F
:10812000D0E90223D1E90201994208BF90422CBF55
:10813000012000207047000008B50B4800F0FDFB4F
:108140000A4B0B49D3E900231218D1E9000143F18E
:1081500000038B4208BF824203D212F1807243F1C6
:1081600000031046194608BD402A0020A830002010
:108170002031002037B505460C460A4801A900F019
:1081800010FC60B10570446001A9064800F033FCA2
:1081900018B1054800F0D6FB002003B030BD042024
:1081A000FBE700BF0C310020402A002038B5184BF7
:1081B0001B78044613B90025284638BD0028FAD09C
:1081C000037F03F0FF05002BF5D0FFF7B5FFD4E9DF
:1081D0000223994208BF904214D3236903B923773D
:1081E000D4E90530984721690029E4D0237F03F0C2
:1081F000FF05002BDFD0D4E90223521843F100031E
:10820000C4E902230348214600F076FFD4E700BF0B
:10821000B0300020F4D7020013B5114B1149186893
:10822000019008231048582200F0A8FB044698B992
:108230000E4A0F4801A900F071FA044660B90C48D3
:10824000012100F05DFB01230A4A0948194600F0AC
:10825000BFFA094B01221A70204602B010BD00BFC0
:10826000F0D70200B43000200C310020DD82020083
:10827000402A0020FFFF7F00B03000203AB10368A1
:108280005A614A1E5142514119610020704707202E
:10829000704738B5037F04460D4683B98261FFF706
:1082A0004BFF2369401941F10001C4E9020103B108
:1082B000256121460020BDE83840FFF75BBF002064
:1082C00038BD0023014603770120FFF753BF0000AC
:1082D000014800F032BB00BF402A00202DE9F04FDA
:1082E00085B0804600F014FB40B15A4AD2E9003113
:1082F00013F1807341F10001C2E9003100214046D1
:1083000000F015FB38B1544E336823B13068FFF7E5
:108310004DFF002333600121404600F008FB20B1EF
:10832000FFF70AFF4D4BC3E900014D484A4F4D4E40
:10833000DFF8389103A900F06EFB002845D1DFF883
:108340002491454EDFF828A1484600F0EBFE336843
:10835000002875D07BB13368D0E90201D3E902234C
:10836000994208BF90422DD233681B7F1BB1316800
:10837000484600F0C1FE484600F0CEFED0E902B308
:1083800007460193FFF7D8FE019BBBEB000463EBAC
:108390000105012C75F1000345DBB4F5350F40D321
:1083A000FFF796FF304A02444FF4960300215046EF
:1083B00000F02EFA00283ED1336813B9404600F091
:1083C000FFF9376005B0BDE8F08F0378012B1DD0B1
:1083D000022B09D14FF0000A304600F09DFE002824
:1083E00034D080F81CA0F7E73BB941680B7F23B974
:1083F00001230B77304600F07FFE03A9184800F0F8
:1084000035FB03A9164800F006FB96E741683B6878
:10841000994202D100233B60EFE7304600F085FE31
:10842000EBE7BA68C0E70021504600F076FA38461C
:10843000FFF7BCFE01E00D28F9D00023336083E78D
:10844000002BBFD1404600F0BFF9BBE7012389F8FC
:108450000030D2E7A8300020283100202031002051
:108460000C310020F4D70200FFFFB400B030002030
:10847000402A00200648074A03780749D35C0122B6
:1084800013B1043002F06EB80C3001F01DBE00BF15
:10849000482A002094310020543100200648074A21
:1084A00003780749D35C012213B1043002F006B807
:1084B0000C3001F0B7BD00BF482A002094310020E5
:1084C0005531002037B50578012D0BD0022D2ED067
:1084D00065B91E491E48FFF712FE002832D1FFF78A
:1084E000DDFF03E0037A1BB9FFF7C4FF03B030BD23
:1084F0004368184C19782046FFF7EFFD80B18DF8DE
:1085000000500190144B68461B689847A168E368C7
:10851000A2885B1A9A42E7D2104B01221A70E5E753
:10852000A268E3689A42F1D08DF80000EAE7C368D8
:108530008DF800500193FFF79DFF074B68461B68BD
:108540009847D3E703238DF80030F6E75531002034
:1085500044310020303100202C31002040310020F7
:10856000F0B51F46234B89B004461A600D4600291A
:108570003DD08A8820480968FFF7A0FD002834D143
:10858000AA89A9681D48FFF799FD00282DD11C4E26
:108590000FCE6D460FC596E80F0085E80F006369A2
:1085A0000693237C174A18488DF81C70003B18BFAF
:1085B00001238DF81430637C002B14BF0E2300239D
:1085C0008DF81530E3680293A36803932368019341
:1085D00069466368009301F077F830B90B4B187067
:1085E0002368013301D0FFF745FF09B0F0BD072034
:1085F000FBE700BF2C310020303100204431002047
:1086000000D80200C5840200482A00204031002022
:1086100070B5084D014608482E78FFF770FD0446F6
:1086200036B100232B70FFF725FF08B1FFF700FDDF
:10863000204670BD403100203031002010B5014689
:108640000E48FFF74AFD0446A8B90D480D4A0378C5
:10865000D35C63B1043001F079FF60B90A4907487F
:10866000FFF74DFD38B9BDE81040FFF717BF0C30DC
:1086700001F01EFDF1E7204610BD00BF443100208F
:10868000482A0020943100205531002070B5EFF3C6
:10869000108672B60C4A946801239CB993600B4B08
:1086A0000B4DD3F8801029401160C3F88050D3F8E7
:1086B000841051604FF0FF32C3F88420047006B973
:1086C00062B670BD0370FAE75831002000E100E0A7
:1086D000FC06FFBD084B9A6810B55AB150B9EFF3CC
:1086E000108172B6054A1C6814605C68546098601A
:1086F00001B962B610BD00BF5831002000E100E0B2
:10870000435882B03BB10023435043580193019B2F
:10871000012002B070471846FBE70000F8B5204B77
:108720004479204D43F824201F4A204B05EBC40414
:108730009B1A2279DB081B0432B143F002001C496A
:10874000FFF73AF90820F8BD02680C88C2F808451E
:1087500090F904608A7804795201002ED2B219DBB4
:1087600014498F1987F800230122760904F01F04A9
:1087700002FA04F441F82640427905EBC2010124D3
:1087800045F832000C7143F003000B49FFF714F970
:108790000020D8E7094904F00F040A55ECE700BFB0
:1087A0006C31002064310020B4D50200F4D5020001
:1087B00020D8020000E100E042D8020014ED00E001
:1087C000036801221A607047036801225A607047EB
:1087D00073B501F15005AD000068ADB24FF48034BF
:1087E0008C400026C0F80843C0F84843465101F5C4
:1087F000A8714559019522F07F42019D40F8212042
:10880000C0F844430BB1C0F8044302B070BD00008F
:108810002DE9F74F0D4622F07F4402684FF4803770
:1088200005F150068F408046B60002EB8500C2F885
:108830004873B6B2C2F80873D2F8041599464FF0DF
:10884000000BD0F84035C0F8401542F806B05B1A6E
:108850009259009223F07F43012B009A4FEA850A38
:108860000CD1264B4FF4806043F001039847D8F8B1
:10887000003043F806B09B590193019BD8F80010D3
:10888000D1F80465C1F84473A31B23F07F43012B87
:108890001CD11A4B05F5A875013443F0010341F8CA
:1088A00025404FF480609847D8F80030D3F804355D
:1088B0009E4209D1D8F800300020C3F84473C3F8B1
:1088C000047303B0BDE8F08F0D20FAE78A44C9F1C4
:1088D000FF13CAF84045D1F80405221A013A22F0E4
:1088E0007F4203F57F439342EED3002AE2D1013465
:1088F000CAF84045D1F804359842DAE760D802005A
:1089000003680222C3F8442309B1C3F80423704763
:1089100000684FF48271FFF7F3BE4FF4803303FA1F
:1089200001F10368C3F84813C3F8081370475031C6
:108930008900006889B2FFF7E3BE0368D3F8040535
:108940007047000090F90430002B09DB5A0901211F
:1089500003F01F0301FA03F34032024941F82230C9
:10896000704700BF00E100E0024B034A1B6810683B
:10897000184700BF6C3100206431002010B561B190
:10898000B2FBF3F403FB1424A4B244B9C0E900140D
:1089900084608281C381204610BD0E20FCE709203F
:1089A000FAE737B550E8013F9DB2C4892544848970
:1089B000A54228BF2D1B0489A54202BFBFF32F8FFC
:1089C000002207E0C5EA030540E80154002CE9D184
:1089D0004FF001028DF803200193019B9DF80320C5
:1089E0000B6002F0FF0322B10B880068184403B04B
:1089F00030BD1846FBE70A884B889A4209D150E8F7
:108A0000012FC2EA024240E80123002BF7D10120E6
:108A100070470020704737B550E8023F1FFAA3F5B2
:108A2000C488A54202BFBFF32F8F00220DE0C48986
:108A300025448489A54228BF2D1BC3EA054540E88B
:108A40000254002CE8D14FF001028DF8032001936D
:108A5000019B9DF803200B6002F0FF0322B14B88BD
:108A60000068184403B030BD1846FBE70A884B88FD
:108A70009A4209D150E8022FC2EA224240E802237A
:108A8000002BF7D1012070470020704710B5034636
:108A900053E8000F0A4643E8002494F0000FF7D192
:108AA00010BD10B5034653E8002F42EA010043E829
:108AB000000494F0000FF6D110BD10B5034653E842
:108AC000000F00EA010243E8002494F0000FF6D101
:108AD00010BD10B5034653E8002F02EB010043E838
:108AE000000494F0000FF6D110BD10B5034653E812
:108AF000002FA2EB010043E8000494F0000FF6D130
:108B000010BD0121FFF7CDBF0021FFF7D6BF10B583
:108B100090B1D0E9012301689B1ADBB20A60013BE6
:108B2000DBB2FF2B026802D10020107110BD11686A
:108B30004C1C14600B70F2E70E20F7E737B50546C2
:108B400000240DF107008DF80740FFF79FFD2A680C
:108B50006B68116899420ED9481E106011F8014CDB
:108B6000EB68298A01FB0434AB6811791B1ADBB26C
:108B7000994238BF13719DF80700FFF7ABFD2046FF
:108B800003B030BD37B5054600230DF107000C4694
:108B90008DF80730FFF77AFD2A681368591C1160B9
:108BA000E968641A298AB4FBF1F41C709DF8070087
:108BB000FFF790FD03B030BD826810B504462AB1BE
:108BC00043690168006998470023A36010BD0EB493
:108BD00003B5039921B104AB01AA019300F06EF82B
:108BE00002B05DF804EB03B07047826830B40468EB
:108BF000551C8560A154D0E901329A4202D330BCA1
:108C0000FFF7DABF30BC70472DE9F84F9846DDE931
:108C10000A43154682460F460A464FF00109AA420A
:108C20000FD2C14538BFC14613F0010B01D16CB959
:108C300000240126B8F1010F1BD908F1FF386E435B
:108C4000F8E709F10109B2FBF5F2E8E79B070ED559
:108C5000B8F1000F0CBF30262026A145E9D2013C17
:108C600031465046FFF7C1FF002CF6D1E0E7202641
:108C7000F3E7B7FBF6F39D42E1D9DFF83C80B7FBA1
:108C8000F6F3504618F8031006FB1377FFF7ADFF15
:108C90003346AB42B6FBF5F6F1D2BBF1000F02D082
:108CA0000CB1A14501D3BDE8F88F20215046013C0D
:108CB000FFF79BFFF4E700BF66D802002DE9F74FEE
:108CC000054617468846002900F0428118F8011B26
:108CD00049B92B7B002B00F03B81284603B0BDE84F
:108CE000F04FFFF769BF252940F0B780002698F8BC
:108CF00000302D2B424608F1010823D0302B24D020
:108D00002B2B25D000242A2B02F1010123D13B6813
:108D10001A1D1B683A601C440A4613782E2B26D174
:108D200001324FF0000A104610F8011BA1F1300C7F
:108D3000BCF1090F1DD80A2303FB0A13A3F1300A63
:108D40000246F0E746F00106D1E746F00206CEE71C
:108D500046F00406CBE711F8013CA3F130000928E6
:108D6000DBD80A2202FB0434303C0A46CBE74FF042
:108D7000000A12F8011B01F0FB0068289046F8D0A9
:108D8000782909D86F290CD8632962D022D82529DF
:108D900063D0582900F0888098F80030002B95D1D6
:108DA00097E770390829F7D801A353F821F000BFDD
:108DB0002B8F0200998D0200998D0200B98E02005E
:108DC000998D0200978E0200998D0200998D020004
:108DD000A98E0200642901D06929DDD13A68D2F850
:108DE0000090111D89EAE9723960A2EBE9724FF037
:108DF000010B092A35DCD34538BFD3462CB1B9F174
:108E0000000F01DB720700D5013CB30702D5BAF1B0
:108E1000000F03D0F00701D44CBB0024B9F1000FC0
:108E20002DDAC9F100092D212846FFF7DEFE06F0F4
:108E30000302022A04D1BAF1000F01D11CBB0024A5
:108E4000CDE9004653460A2249462846FFF7DCFE94
:108E5000A2E73B681A1D19783A602846FFF7C5FE5D
:108E60009AE70A230BF1010BB2FBF3F2C1E7A3452A
:108E7000D4D220212846013CFFF7B7FECCE771078A
:108E8000D5D52B21D0E7A345DAD230212846013CA5
:108E9000FFF7ABFED2E73968CDE900460A1D3A601C
:108EA00053460A220968D0E739680A1D3A60CDE9BD
:108EB000004653461022F5E73B681A1D3A6016F04B
:108EC0000106D3F8009028D1B9F1000F03D048462D
:108ED00004F01FF80646B44200D904BB09F1FF397B
:108EE00019F8011F00293FF457AF2846FFF77DFE10
:108EF000F6E728460136FFF778FE19F80610002934
:108F0000F7D1A642BFF448AF002C3FF445AF202173
:108F10002846013CFFF769FEF3E70026EDE7202134
:108F20002846013CFFF761FED5E73B681A1D3A6011
:108F3000302128461C68FFF758FE78212846FFF7A5
:108F400054FE00220823CDE90032214610227CE79E
:108F500003B0BDE8F08F00BF2DE9F84FB0F806A0D0
:108F60004579D2F800B09DF828900AFB05F5043D3C
:108F700088460BEB0301A94203F1040488BFA5EB6B
:108F8000030BB4FBFAF607460AFB1644C2F800B01E
:108F90004EB9AAEB04055D4528BF5D46BBF1000F45
:108FA00004D1BDE8F88F3F68013EF1E7043408EBD7
:108FB00006003C442A46B9F1000F0DD02146ABEB28
:108FC000050B03F028FFDA452E443F6855464FF065
:108FD000000428BF5D46E1E701462046EFE7FFF7C2
:108FE00096BDF8B546790146721E054600239342A8
:108FF0002D6803D30024A64202D8F8BD0133F6E75A
:109000000F682846FFF7BEFD01343946F3E72DE926
:10901000F843068ACD1C0746FFF790FD043E354411
:109020000446B5FBF6F5F0B14FF48073EDB28380E2
:10903000C680013D076081464FF00008A84512D266
:109040003846FFF77BFD064648B16379013363710B
:1090500008F10108C9F8000007608146EEE72046E4
:10906000FFF7BFFF34462046BDE8F88301210430F6
:10907000FFF72FBD10B5012104460430FFF735FD81
:1090800010F0FF0F04D12046BDE81040FFF7A9BF44
:1090900010BD1FB503920022009203AAFFF75CFFE8
:1090A00005B05DF804FB1FB503920122009203AAEC
:1090B000FFF752FF05B05DF804FB836800225A6099
:1090C000C3E904229A60DA601A6070470B684A6844
:1090D0004360934208BF0023016008BF43607047AC
:1090E000436843B10268916852680B4493424360FD
:1090F00004BF00234360704770B5446806460D46C0
:10910000206818B1B3682946984718B923682B60BE
:10911000256070BD2468F3E74368186808B10268E9
:109120001A6070474368186870474368186800B948
:109130007047884203D102681A60012070470346D5
:109140000068F4E710B50D49A1F59472914201D879
:1091500000200FE08C1AE30F03EBE4035B1002EB3B
:10916000C30452F83330834205D802D204F1080216
:10917000ECE7606810BD2146E8E700BF74DD02003F
:1091800008B5FFF7DFFF024B002808BF184608BDEF
:1091900039DC020010B50446C0B2FFF74FFA204692
:1091A00010BD00000A4B1B685A1C05BF094B0A4A38
:1091B0000A4A10680ABF1B781068C0F30310082B16
:1091C00004D103288CBF0020012070470020704785
:1091D00030010010E00F00F0E80F00F03401001043
:1091E000064B1B68082B06D1054B1B68032B02D8C6
:1091F000044AD05C70470020704700BF3001001067
:109200003401001074DD020008B5FFF7CBFF40B158
:109210004FF080430022C3F80C21C3F81021C3F89B
:109220003825FFF7BFFF002846D04FF080525E4B35
:10923000D2F80414C3F82015D2F80814C3F8241582
:10924000D2F80C14C3F82815D2F81014C3F82C1552
:10925000D2F81414C3F83015D2F81814C3F8341522
:10926000D2F81C14C3F84015D2F82014C3F84415E2
:10927000D2F82414C3F84815D2F82814C3F84C15B2
:10928000D2F82C14C3F85015D2F83014C3F8541582
:10929000D2F83414C3F86015D2F83814C3F8641542
:1092A000D2F83C14C3F86815D2F84014C3F86C1512
:1092B000D2F84424C3F87025FFF792FF10B13B4B5E
:1092C0003B4A1A60FFF78CFF18B13A4BFB22C3F8F8
:1092D0001825FFF785FF48B13749384B0A681B68E6
:1092E00022F00F0203F00F0313430B60FFF778FF28
:1092F00018B1334B4FF400721A60FFF753FF48B1B7
:109300004FF08043D3F80024D20744BF6FF001022E
:10931000C3F800242B4AD2F8883043F47003C2F813
:109320008830BFF34F8FBFF36F8F4FF01023D3F808
:109330000022002A03DBD3F80432002B2FDA224B61
:109340000122C3F80425D3F80024002AFBD04FF0F3
:1093500010221221C2F80012D3F80024002AFBD0F8
:109360004FF010231222C3F80422174B1A46D3F8E9
:1093700000140029FBD00021C3F80415D2F80034F2
:10938000002BFBD0BFF34F8F0E49104BCA6802F47D
:10939000E0621343CB60BFF34F8F00BFFDE70C4B80
:1093A0000C4A1A6008BD00BF00C000408C56004047
:1093B0004881030000F00040E40E00405802001015
:1093C0004096024000ED00E000E001400400FA0594
:1093D0005C2A00200090D003074B1B5C1F2B8ABF28
:1093E000064A4FF0A04203F01F03D2F80405D8400C
:1093F000C04300F00100704778DD02000003005018
:10940000074B1B5C1F2B86BF064903F01F034FF061
:10941000A041012202FA03F3C1F80C35704700BFE6
:1094200078DD020000030050074B1B5C1F2B86BF3A
:10943000064903F01F034FF0A041012202FA03F393
:10944000C1F80835704700BF78DD02000003005006
:1094500008B50020FFF7E8FF0120FFF7E5FF022035
:10946000FFF7E2FFBDE808400320FFF7DDBF08B5C6
:109470000020FFF7C5FF0120FFF7C2FF0220FFF722
:10948000BFFFBDE808400320FFF7BABF0A4B185CD6
:109490001F288ABF094B4FF0A04300F01F00D3F8EC
:1094A00004250121814021EA02000A40C3F8080591
:1094B000C3F80C25704700BF78DD020000030050A0
:1094C0000B2809D00C2809D0182809D019280CBF5E
:1094D00003204FF0FF307047002070470120704795
:1094E00002207047C20710B504460CD54FF0A043C8
:1094F0000322C3F83427C3F83827C3F83C27C3F83E
:109500004027FFF7A5FFA3070AD54FF0A0430C2281
:10951000C3F82C27C3F83027C3F86027C3F86427A3
:1095200010BD000038B5074C051E04F1080318BF34
:109530001C4623682BB11A6822605B68284698474E
:10954000F7E738BD7831002020B9054B01225A7069
:10955000FFF7E8BF012802D1014A9070F8E7704791
:109560007031002020B9034B01225A70FFF7DABF97
:10957000704700BF7031002038B50E4C2378B3B966
:109580000D486360A3602361E36000F0E5F80546E1
:1095900002F09AFA08B900F0EBF801232370074BA8
:1095A000D3F800340BB10123A370284638BD8525BC
:1095B000F5E700BF7031002049950200000001402E
:1095C00037B50D4C00230DF107008DF80730FFF77C
:1095D0005DF8E368013BE360E36833B9074BD3F818
:1095E000005415B900F0D6F8A5709DF80700FFF7F4
:1095F00071F803B030BD00BF7031002000000140A1
:10960000012813B50CD0032820D038B9124B012201
:10961000C3F88020BFF34F8FBFF36F8F02B010BD30
:109620000E4C00230DF107008DF80730FFF72EF8E0
:1096300023780BB9FFF7A0FFE3689DF8070001331B
:10964000E3600123A370FFF745F8E7E700F090F827
:10965000FFF7B6FFE2E700BF00E100E07031002055
:109660001FB503788DF800304368019383688DF847
:109670000830C368054A0393054B684653F8213008
:1096800052F82110984705B05DF804FB84310020A2
:109690008C3100201FB503788DF8003043680193AA
:1096A00083688DF80830C368054A0393054B684604
:1096B00053F8213052F82110984705B05DF804FBAB
:1096C000843100208C310020F0B5194B90F800C097
:1096D000DFF86CE043F82C20164B16460A6943F875
:1096E0002C204B7F0EF80C300C4607460FCC89B06F
:1096F0006D460FC594E80F0085E80F001EF80C308A
:10970000CDF810C04BB1002E0B4A694608BF324657
:10971000381D00F0F5FD09B0F0BD002E074A69467E
:1097200008BF324607F10C0000F0AAFBF3E700BFC8
:109730008C31002084310020619602009596020051
:109740009431002000F18040002382B00360036860
:109750000193019B02B07047044A137923B9012198
:10976000106091801846704785207047983100201E
:10977000074B1A68D20704D4C02283F800230122C1
:109780001A604FF080430122C3F81825704700BFCC
:1097900000E100E04FF0804208B50223C2F8083330
:1097A0004FF48270FFF7CEFF034B01211960D2F80E
:1097B0001834DB03FBD408BD0C000040124B1B68BF
:1097C00010B573B14FF48070FFF7BCFF4FF08043CA
:1097D0000122C3F808230D4B587910B95A711B6840
:1097E00098470B4B1B6873B14FF48270FFF7AAFFC9
:1097F0004FF080430222C3F80823044BBDE8104019
:109800001B680120184710BD00010040983100205E
:109810000401004000F1804000F5C040002382B008
:10982000036003680193019B02B0704703681F2B1C
:1098300083BF03F01F03036001484FF0A04070474F
:109840000003005007B5019001A8FFF7EFFF019B4F
:1098500000EB8300D0F8003723F44033C0F8003722
:10986000D0F8003743EA0141C0F8001703B05DF8B3
:1098700004FB0000054B4FF0FF32072843F820207F
:1098800084BFC01880F85820704700BFA031002066
:1098900038B51E4C94F86A30ABBB4FF6FF71FF2011
:1098A0005A09012A14BF4FF0FF320A4603F01F0580
:1098B000EA40D20748BFE21803F1010348BF82F82B
:1098C0003000302BECD10021C8B2FFF7D3FF0131BB
:1098D0000C29F9D1062200210D4803F0C5FA0D4BE1
:1098E000C02283F8062340221A604FF4BE70FFF7AF
:1098F00091FF094B4FF00042C3F80423012384F881
:109900006A30002038BD0820FCE700BFA0310020ED
:109910000432002000E100E000600040034B93F8B7
:109920006A00003818BF0120704700BFA031002036
:10993000F7B53B4E3318054693F93030002B6CDAFF
:109940008B78C3F34003002B0BBF082400240C20AA
:109950000820844202D1042003B0F0BD56F82470E0
:10996000013743D1701946F8242080F8304013B9EC
:10997000331983F858508B785A0717D4D80737D53E
:1099800001A80195FFF752FF019B00EB8300D0F87F
:10999000003723F00203C0F800372248EA0805F038
:1099A00007070123BB40875C3B4383548B780A78CD
:1099B00013F0020328D0A40004F1804404F5C0444D
:1099C0002D02D4F8103523F44F3323F44073C4F838
:1099D00010351204D4F8103505F47C5502F44032E9
:1099E00015431D43C4F810550020B5E70134B0E716
:1099F00001A84A780195FFF719FF019B03F5E07371
:109A0000920040F82320C8E7083C344494F86050A2
:109A100045EA821284F86020E6E708209CE700BF50
:109A2000A03100200432002073B5224C26180546D0
:109A300096F93020072A1ADD224492F858309B0903
:109A4000032B0FD1019001A8FFF7F0FE019BD0F886
:109A50001015D94001F0010102312846FFF7F2FE4E
:109A600002B070BD012B0CBF02210321F5E7D3B278
:109A7000072BF5D8930003F1804303F5C043D3F8D7
:109A8000100540F00100C3F8100502F1400080000D
:109A900080B2FFF7BFFE0029E2D096F9303054F8CB
:109AA0002330002BDCD0012303FA02F2024BC3F86F
:109AB0000423D5E7A03100200060004007B50190E5
:109AC00001A8FFF7B3FE019BD0F81005D84000F0C5
:109AD000010003B05DF804FB2DE9FF470024CDE948
:109AE0000244584D4FF48072012102F1804303F586
:109AF000C04390B21B68012B06D1D5F804330B424A
:109B000002D0FFF787FE0C430432B2F5907F4FEA94
:109B10004101EAD14C4B1B68012B11D14FF4BE70AF
:109B2000FFF778FE4FF0A04344F00044D3F820251F
:109B30000292C3F82025D3F820280392C3F82028E6
:109B400014F0FF0F1AD0414F00250126344210D0E7
:109B5000AB0003F1804303F5C043D3F81005D3F8FD
:109B6000101557F8253023B1C1F30141C0F305208A
:109B700098470135082D4FEA4606E7D1002C59DAFF
:109B8000324D334C334E4FF00008012716F9013B9C
:109B90005A1C3CD0C3F3C20104A801445FFA83F904
:109BA00011F8081C03F03F0203F0070307FA03F360
:109BB00019422CD001A80192FFF738FE019B03F552
:109BC000E07350F82330C3F3014ABAF1020F104694
:109BD0000CBF03210221FFF735FE01A80192FFF718
:109BE00025FE019B07FA03F3C0F82035AB1893F963
:109BF000303055F8233053B14FEA9911032904D07E
:109C0000BAF1020F19D1012901D11046984708F184
:109C10000108B8F1040FB9D14FF0A043D3F82025C3
:109C20000292C3F82025D4F820350393C4F82035D8
:109C30001343A7D104B0BDE8F087BAF1030FE6D112
:109C40000229E1E7006000407C610040A031002073
:109C50000003005000320020014B1B68184700BF72
:109C60000C3200200E4B984237B50C4602D0002033
:109C700003B030BD00230DF107008DF80730FEF76B
:109C800005FD084B1D7915B901221C601A719DF85C
:109C90000700FEF71FFD002DE9D01120E8E700BF07
:109CA000002000400C3200200023435082B0435873
:109CB0000193019B02B070470A4610B54FF48E71B4
:109CC000FFF7F2FF136A9168C95C136A01331362EC
:109CD000C0F81C1510BD024608B500684FF492711B
:109CE000FFF7E2FF4FF484711068FFF7DDFF1368A0
:109CF00001221A6008BD8B690A4610B54FF48471C1
:109D000023B9FFF7D1FFD0F8183510BDFFF7CCFF0E
:109D1000536AD168D0F81805C854536A01335362A6
:109D2000F3E700001FB501238DF80030044BCDE9A7
:109D30000110D3E900126846904705B05DF804FBB6
:109D40001432002030B54C48D0F8043313F4007FAF
:109D500085B005464DD0D0F82431002B49D04FF4C2
:109D60009271FFF7A1FF4FF40173C0F80833434B22
:109D700093F829200AB9012242603F4902228DF856
:109D80000020D1F88024C1F8802403929A690292BD
:109D9000DA6801920022C3E906226846D3E900127C
:109DA00090473548D0F81C315BB134494A690B6A99
:109DB0009A420A464AD991F82830002B46D1FFF73B
:109DC0007BFF2D48D0F844318BB14FF4A271FFF7DF
:109DD0006BFF2A4B93F829200AB1012202609A698D
:109DE0002AB10022586AD9689A61FFF79BFF05B033
:109DF00030BDD5F804335B07D3D5D5F80831002B37
:109E0000CFD01E4C1C482146FFF775FF636AA2693C
:109E10009A422346C5D1E269E1684AB12369E36009
:109E20000023606AA261E3616362FFF77BFFB8E72A
:109E300094F829200AB901226A600F4A4FF4017090
:109E4000C2F808030022586A9A61EEE70A484FF404
:109E50008E71FFF729FF5369002BB2D0516902912F
:109E6000002391688DF80030019153616846D2E972
:109E700000139847A5E700BF0020004014320020DF
:109E80002DE9F843614B057991462C2202FB0532FE
:109E9000064692F82A200C469846002A40F0B180E7
:109EA0005B490068FFF7DEFE0746002840F0AB8004
:109EB00021684A1C10D01F2987BF564A01F01F0392
:109EC0000B464FF0A0420120984003F5E073C2F822
:109ED0000805032042F823006068431C0DD01F28AA
:109EE0008BBF00F01F0303464A4A4FF0A04203F520
:109EF000E0734FF0000C42F823C03368A269C3F846
:109F0000242594F814C0627DBCF1010F4CEA0202D2
:109F1000C3F86C25C3F81405C3F80C152BD1A16840
:109F2000481C0DD01F298BBF01F01F020A4639487B
:109F30004FF0A04002F5E0724FF0000C40F822C054
:109F4000E068421C13D01F2887BF324A00F01F0C64
:109F500084464FF0A0424FF0010E0EFA0CFE0CF5B5
:109F6000E07CC2F808E54FF0030E42F82CE0C3F89D
:109F70000805C3F810152C236B4308EB0302C2F845
:109F80000490226948F80320B9F1000F21D030680D
:109F9000247F4FF48E71FFF787FE4FF4A271306873
:109FA000FFF782FE32681C4BC2F80433110B42F3F8
:109FB00007326301002ADBB21EDB1848841884F8DC
:109FC00000330123520901F01F0103FA01F140F8A7
:109FD000221033680422C3F800252C2303FB0583D9
:109FE0000022C3E9062283F829205A61012283F85E
:109FF0002A203846BDE8F883094A01F00F0153547E
:10A00000E7E70827F5E71127F3E700BF1432002040
:10A01000459D0200000300508000020000E100E0C6
:10A0200014ED00E02DE9F047204F90F804904FF038
:10A030002C0808FB097405466669002E34D162615C
:10A040000068A16026624FF48E7184F82860FFF7E3
:10A050002BFE2868012383602146FFF72DFE6368ED
:10A06000A0468BB92868D4F814A0236A9A4511D861
:10A070002A68D2F81C31002BFBD00123D3602C239B
:10A0800003FB097300225A613046BDE8F08794F85B
:10A0900028303BB9D0F81C31002BF8D04146FFF7EF
:10A0A0000BFEE2E70F26EAE71126EDE71432002067
:10A0B0000379044A2C2101FB03235869003818BF97
:10A0C00001207047143200202DE9F843394F0579FB
:10A0D0002C2303FB057306465C6824B103684FF428
:10A0E0000170C3F808032C2303FB0573986950B172
:10A0F000D86900283ED024B133684FF40172C3F808
:10A100000423112433E09A61D9605862D8612C236A
:10A1100003FB057393F829301BB910B93046FFF7DC
:10A12000DAFD4FF02C0909FB05783068D8F80430C7
:10A13000002B34D14FF4A271C146FFF7B5FD306852
:10A14000D0F82431D0F80821D0F84441B2B90CB984
:10A15000002BF4D02C2202FB05750022AA6123BB40
:10A160002CBB95F8291033680122B1B11A60204642
:10A17000BDE8F8831961DA610120C8E7002BE9D155
:10A18000002CE7D14946FFF7B6FDD8F82430D8F8BF
:10A1900018209A42D3D82346DCE75A60E7E74FF409
:10A1A0000173C0F804330024E1E70324DFE70F2440
:10A1B000DDE700BF143200200023435082B0435833
:10A1C0000193019B02B070471FB501238DF8003049
:10A1D000044BCDE90110D3E900126846904705B061
:10A1E0005DF804FB403200207FB5434AD2F8246179
:10A1F000002E60D010464FF49271FFF7DDFF02236E
:10A200008DF80030D2F88034C2F880340393D2F84D
:10A210003C350293394BDA6801920022C3E90622E9
:10A220006846D3E9001290473348D0F8443173B1FF
:10A230004FF4A271FFF7C0FF304B9A693AB1002288
:10A24000C3E90622D968D0F83C05FFF7BDFF2A48CC
:10A25000D0F82031ABB14FF49071FFF7ADFF01237F
:10A26000C360264B5A6962B1D0F84C1502910022A6
:10A2700099688DF8002001915A616846D3E900126F
:10A2800090471D48D0F858319BB14FF4AC71FFF79F
:10A2900093FF1A4B5A6962B1D0F84C150291002213
:10A2A00099688DF8002001915A616846D3E900123F
:10A2B000904704B070BDD2F81031002BB4D04FF4E9
:10A2C00088711046FFF778FF0C4BD2F83C0599696E
:10A2D0008842A9D1DC69D96864B1D2F8005225F06E
:10A2E0002005C2F800521A699C61DA60DE61FFF74E
:10A2F0006BFF99E79C61FAE70020004040320020A4
:10A300002DE9F843674B06799146242202FB063279
:10A31000044692F820200D469846002A40F0BE8060
:10A3200061490068FFF79EFC0746002840F0B880AE
:10A330002868421C10D01F2887BF5C4A00F01F030A
:10A3400003464FF0A0420121994003F5E073C2F8A3
:10A350000815032142F8231069684B1C0DD01F29F2
:10A360008BBF01F01F030B46504A4FF0A04203F58C
:10A37000E0734FF0000C42F823C02368AA69C3F8C9
:10A38000242595F814C06A7DBCF1010F4CEA020245
:10A39000C3F86C25C3F80C05C3F814152BD1A968B4
:10A3A000481C0DD01F298BBF01F01F020A463F48F1
:10A3B0004FF0A04002F5E0724FF0000C40F822C0D0
:10A3C000E868421C13D01F2887BF384A00F01F0CD2
:10A3D00084464FF0A0424FF0010E0EFA0CFE0CF531
:10A3E000E07CC2F808E54FF0030E42F82CE0C3F819
:10A3F0000805C3F810152423734308EB0302C2F8C1
:10A4000004902A6948F80320B9F1000F30D0206881
:10A410002A7F4FF48871FFF7CFFE20684FF49071C8
:10A42000FFF7CAFE20684FF49271FFF7C5FE20685F
:10A430004FF4A271FFF7C0FE4FF4AC712068FFF734
:10A44000BBFE23681A49C3F80413190B43F30733FF
:10A450005201002BD2B21CDB1648C51885F8002328
:10A4600001225B0901F01F0102FA01F140F82310FB
:10A4700023680822C3F80025242303FB0683002257
:10A48000C3E906225A61012283F820203846BDE83C
:10A49000F883094B01F00F015A54E9E70827F5E763
:10A4A0001127F3E740320020E9A102000003005029
:10A4B0001003420000E100E014ED00E001F0604311
:10A4C000B3F1005F2DE9F041064638D11E4B077904
:10A4D000242505FB073598466C69002C31D16A614B
:10A4E0000068A9604FF49071FFF766FE4FF4AC71FD
:10A4F0003068FFF761FE33686A69A968C3F84415DC
:10A50000C3F8482501229A606A68AAB9D3F82021C5
:10A51000D3F858411AB9002CF8D00F2407E0002CCA
:10A52000FBD10122DA60D3F85821002AFBD0242382
:10A5300003FB078700237B612046BDE8F0811024E0
:10A54000FAE71124F8E700BF403200200379044AFB
:10A55000242101FB03235869003818BF01207047EC
:10A5600040320020F8B501F06043B3F1005F0446CB
:10A570000F465ED10379304D242101FB0351496818
:10A5800021B100684FF40476C0F80863242000FB72
:10A5900003539E6956B1D869002839D021B1236888
:10A5A0004FF40472C3F80423112030E09A61DF6095
:10A5B000DE6120684FF48871FFF7FEFD20684FF4DC
:10A5C000A271FFF7F9FD2368C3F83475C3F8382585
:10A5D00016BB01221A602179242202FB0152526823
:10A5E0000ABBD3F81041D3F84421D3F82401144313
:10A5F00002D10028F5D02246242303FB0155002375
:10A60000984218BF03209A42AB6118BF0F20F8BDD3
:10A610001F61DA610126CCE7D3F8002242F0200264
:10A62000C3F80022D7E74FF40472C3F804230020D4
:10A63000EDE71020EBE700BF40320020F7B50679C8
:10A640002F4D0C237343EF183C7A002C55D1EA5060
:10A650004B687B60477903682246A446D4B2A74280
:10A660003CD8CA7843F307345201002CC3F30733B4
:10A67000D2B23DDB234F07EB040C8CF80023012200
:10A68000640903F01F0302FA03F347F82430036858
:10A690004A78D3F8040502F0030220F003000243D5
:10A6A000C3F80425D3F808058A7820F0030002F0E7
:10A6B00003020243C3F80825D3F810050A7820F0F6
:10A6C0000F0102F00F020A43C3F810250C2303FB0D
:10A6D000065501232B72002003B0F0BD940004F551
:10A6E000A074013243F804C01C590194019CB5E7E1
:10A6F000054C03F00F03E254C9E70820ECE700BF64
:10A700006432002000E100E014ED00E00368012263
:10A710001A600379034A0C2101FB032302221A72F7
:10A72000704700BF643200200368044901221A61A7
:10A7300003790C2000FB03131A7270476432002067
:10A7400003680122DA60704737B54FF4803400683F
:10A750008C407BB18B0003F5A0730025C550C35816
:10A760000193019BC0F8044301F5A87140F8212032
:10A7700003B030BDC0F80843F6E770B4046840F297
:10A780000116D4F800528E4025EA0605C4F800529E
:10A79000D4F800522B43C4F800329DF80C3070BC42
:10A7A000FFF7D2BF2DE9F341104C114F114E002598
:10A7B0004FF48038236883B1D7F8043308FA05F2E0
:10A7C0001A420AD0002323602368019304F5E04075
:10A7D000019B80B2D6E9003198470135042D04F180
:10A7E0000404E7D102B0BDE8F08100BF4091004011
:10A7F00000900040643200200220FEF747BE0000B7
:10A800002DE9F04780460D46FEF75AFE0328044620
:10A8100010D8012D10D0022D30D05DB91A48FDF7A7
:10A8200050FD1A4B04EB440213449E78184B1B5DF9
:10A83000B34219D0BDE8F087144D00EB4002A918CF
:10A84000AE5C4A78470052B1DFF84C900E484A4659
:10A850004FF48041FDF71DFD08B989F800803B19D0
:10A860002B449A780A4B1A55002EE3D0094B1B68EB
:10A87000002BDFD03046BDE8F047184700EB40041E
:10A88000024804446678EFE798320020D83200206E
:10A89000F1320020EC3200207032002000780221DA
:10A8A000FFF7AEBF08B5094B1B7853B10020FEF788
:10A8B000BBFD0120FEF7B8FDBDE808400320FEF710
:10A8C000B3BDBDE80840FEF7C3BD00BF7132002034
:10A8D000F8B57B4C237805461BB100232370FFF7A6
:10A8E000E1FF172D00F28880DFE805F00C17174311
:10A8F00054657680888D888D959A9A9A9A9AC4C95B
:10A90000D1D9E4E4FFF7CEFF6E48FDF7DAFC6E4BD9
:10A91000002204461A702046F8BD0020FEF75CFDB8
:10A92000F8B10020FEF780FD022D0CBF4FF4E1616D
:10A930004FF47A61644B1D704FF400404FF47A7409
:10A940000025E0FB01454FF4FA620023204629462A
:10A9500002F0F8F800220146BDE8F8405948FDF73A
:10A9600098BCFEF74DFD022D0CBFC8214FF4C871F5
:10A97000E0E70020FEF730FD40B10020FEF754FD77
:10A980004FF44871504B03221A70D5E7FEF738FD9B
:10A99000C821F7E70020FEF71FFD38B10020FEF7C1
:10A9A00043FD4FF47A61484B0422EDE7FEF728FDA2
:10A9B0004FF4C871F7E70020FEF70EFD48B1002004
:10A9C000FEF732FD404B05221A7040F6CD410022C1
:10A9D000C2E7FEF715FDF5E70020FEF757FD3A4BFD
:10A9E00006221A70002240F26661B5E70020FEF7E9
:10A9F00007FD354B07221A7000248CE701202070D8
:10AA0000FEF744FDEEE701202070FEF73FFD002237
:10AA10004FF40051A0E7FEF72AFD2B4B0C22EAE78A
:10AA20002A482B4EFDF74DFCD5F1110504461CD0EC
:10AA3000D8B9012D13D0C8235D434FF400474FF41C
:10AA40007A7000214FF4FA620023C7FB050102F07F
:10AA500079F8224601461D48FDF71BFC04460220FA
:10AA6000FEF7CEFC0123337055E70220FEF7DCFC35
:10AA70000023F8E7FFF716FF134B1222BBE7FFF79F
:10AA800011FF0020FEF7BCFC0F4B1322B3E7FFF7CA
:10AA900009FF0120FEF7B4FC0B4B1422ABE7FFF7D4
:10AAA00001FF0020FEF7ACFC0120FEF7A9FC064BDD
:10AAB0001522A0E7FEF7DBFC034B1D709CE700BFEF
:10AAC000E8320020B8320020F03200207832002036
:10AAD00071320020044B1B68DB0703D5034B187849
:10AAE000FFF7F6BE704700BFE4320020F0320020CE
:10AAF00038B51C4B18601C4B10F002040546196059
:10AB00001AD01A4B1A480E221A700F22DA7010222D
:10AB10009A7111225A72042140F23332FDF71CFA65
:10AB2000044648B9FDF76EFA044628B90146114AB1
:10AB30001148FDF7A3FB0446EB0711D50120FEF7F2
:10AB4000D1FC6CB921460D4A0D48FDF797FB044630
:10AB500030B9BDE838400B4A0B480121FDF78EBBE8
:10AB6000204638BDE4320020EC320020D8320020EC
:10AB7000A4DD02009DA80200C8DD0200D5AA0200E3
:10AB8000CCDD0200F9A70200C4DD0200032811D8C1
:10AB9000012A0AD101290FD100F10E02D2B20D4BC8
:10ABA00000EB40001A54002070470129F7D0022919
:10ABB00004D049B1072070470022F8E7054B00EBAD
:10ABC000400018444270EEE7024B00EB400018448E
:10ABD0008270E8E7D832002008B501220221002067
:10ABE000FFF7D4FF08B1072810D107220221012066
:10ABF000FFF7CCFF08B1072808D100210A22084638
:10AC0000FFF7C4FF10B1072808BF002008BD0000EF
:10AC10000388102B10B502D0112B1ED010BD1A4C7A
:10AC20002168B1B901220846FFF7B0FF08B1072833
:10AC300024D1072202210120FFF7A8FF08B107282D
:10AC40001CD1042202210020FFF7A0FF08B1072831
:10AC500014D1236801332360E0E70B4A1368013BFA
:10AC60001360002BDAD1FFF7B7FF0028D6D0074BCF
:10AC70001B68002BD2D0BDE810401847034B1B685F
:10AC8000002BE6D09847E4E7FC320020F8320020A1
:10AC900070470000B0F5A07F02D1024801F009BA68
:10ACA000704700BF1833002008B50B4802F082F847
:10ACB0000A4B0B480B49C01AC008000440F00300BF
:10ACC000FCF77AFE084800F071FD18B1BDE80840B5
:10ACD000FDF7AEB908BD00BFD0DD0200B4D502005B
:10ACE000E4D50200DDDD02002844002010B5037821
:10ACF000032B22D8DFE803F01C08021741880F4815
:10AD0000BDE8104002F056B884783CB10C4802F01F
:10AD100051F80220BDE81040FEF772BB094802F06E
:10AD200049F82046F6E7084802F044F80320F1E726
:10AD3000064802F03FF80120ECE710BDE8DD020014
:10AD400009DE020025DE02003EDE02005ADE0200BD
:10AD500037B50378012B044658D0022B46D0002B80
:10AD600033D12E4C2E4D20882844FDF751FC2388EA
:10AD700001339BB21D44238015F8012C0A2A03D00D
:10AD80000D2A01D0132B20D9264B27482749C01A5A
:10AD9000C008000440F004000190FCF70DFE22887A
:10ADA0001F490198FCF72CFE228821491C4801F01C
:10ADB000CDFF60B9FEF74CFB1E4801F0D6F8014606
:10ADC0001D4801F0F7FF0023238003B030BD228827
:10ADD0001A49134801F0BAFF0028F4D1FEF738FBF6
:10ADE000144801F0A7F901461548EAE70E4B0D4853
:10ADF00014491B1ADB081B0443F00100FCF7DCFDBF
:10AE0000606803B0BDE83040FDF712B9064B054855
:10AE10000D491B1ADB081B04EEE700BF14330020AA
:10AE200000330020B4D50200E4D5020070DE020039
:10AE300090DE02001833002096DE0200B5DE02002C
:10AE4000BBDE0200DEDE020010DF02000E2808B5C5
:10AE500002D00F280BD008BDFEF7FAFA084801F01F
:10AE600084F801460748BDE8084001F0A3BFFEF79B
:10AE7000EFFA034801F05EF901460348F3E700BF2B
:10AE80001833002096DE0200BBDE020008B503780E
:10AE900013B1042B0AD008BD43680B48D97C01F0DC
:10AEA000FFF8BDE808400948FFF74ABC084B0948CD
:10AEB0000949C01AC008000440F00300FCF77CFDFB
:10AEC000BDE80840FFF7F0BE183300207CDF020029
:10AED000B4D50200E4D502003CDF0200F0B54FF427
:10AEE00080418DB00020FCF7D3FB08B1FDF7A0F83E
:10AEF0004A4DFCF70DFB0FCD06AC0FC495E80300DF
:10AF0000474B484A02934FF4807384E80300CDE92D
:10AF100004230393444A072302A906A8FDF720FB54
:10AF200008B1FDF785F800F091FD08B1FDF780F854
:10AF3000002306A90120069300F016FE08B1FDF7D4
:10AF400077F806A800F0E2FE08B1FDF771F81022CC
:10AF5000002106A801F088FF344A354806A900F010
:10AF6000CBFB08B1FDF764F8324A3148032100F009
:10AF700087FB08B1FDF75CF82D480022042100F0A2
:10AF8000A7FB08B1FDF754F82B492C4800F0B4FF9B
:10AF9000FDF742F908B1FDF74BF829490320FFF707
:10AFA000A7FD0446FEF754FA14B12046FDF740F819
:10AFB000244A25480023CDE9062306A9234AFFF7A2
:10AFC0003DFB08B1FDF734F8214B2249D3F8102599
:10AFD0001D481A4F204E1C4D0123D2B221FA02F215
:10AFE00000930021FFF7C9FB1748FFF78FFBFFF71E
:10AFF0005BFE1248002100F091FF104801F0FAF8C2
:10B000001924384601F024F90146304601F0D2FEF9
:10B010002846FFF789FB013CF3D1FEE764DF02001D
:10B02000784400207845002051AD02008DAE02002A
:10B030002844002084DF0200EDAC02001833002019
:10B040004DAE0200000003067CDF020095AC02005A
:10B05000009000400024F4004CDF02000369C16846
:10B060008B429DBF8268D21802F1FF3203F1FF3399
:10B0700094BF501A581A70472DE9F843D0E902944A
:10B080000546A9EB04084068904520440F46144447
:10B0900004D901F0C0FEEC60BDE8F8834246A4EBA1
:10B0A000090401F0B8FE6868224607EB0801F0E7E2
:10B0B0002DE9F843C5680646894617464FF0000853
:10B0C0003469B3687068A54228BFE418013C621B6C
:10B0D0005C1BBC4228BF3C46944228BF14464946EC
:10B0E0002844224601F097FEB3682544AB4208BFCE
:10B0F00000253F1BA044A144F560E1D14046BDE8D6
:10B10000F883000010B5114C114AA2610223C4E972
:10B110000433104BE361A2644FF400730E4A0F49ED
:10B120002362E26400231022E01DA3626362E362F3
:10B13000A3656365E365226501F0C9FE0849204601
:10B1400001F0C5FE2023A37110BD00BF784600208A
:10B1500088DF020000470020F046002091DF020057
:10B1600095DF0200F8B5184C182300FB033503FBEC
:10B1700000402544C46A012C0F4616460FD0022C0D
:10B180001AD0F4B92846FFF769FF864205D832463F
:10B1900039462846FFF770FF34462046F8BD28465A
:10B1A000FFF75CFF8642344628BF044622463946F4
:10B1B0002846FFF761FFF0E72846BDE8F840FFF7B3
:10B1C00077BF0024E9E700BF78460020FFF79ABF69
:10B1D00064DF704730B5C8B1F2B10024651C8D4200
:10B1E00006DA1588A54212D805196D789D420ED150
:10B1F000A14211D9005D48B1013880B230B10234AA
:10B20000A3B210FA84F4A14206DB138030BD055DC1
:10B2100001352C44A4B2E1E70020F7E7F0B587B090
:10B22000002306460C461046ADF8063002AA10234D
:10B230000DF105018DF80530FFF7CAFF16B90020A2
:10B2400007B0F0BD0028FAD19DF80550042D2BD091
:10B25000102D2BD0022DF3D10323BDF806207AB98F
:10B260000DF1060221463046FFF7B4FFBDF8063067
:10B270002BB92B460DF106023046FFF7ABFF044613
:10B28000BDF80670002FDAD00025AC42D7D9E819F6
:10B290009DF8052002A9304401F058FD48B19DF801
:10B2A00005301D44ADB2F0E70523D6E70625072398
:10B2B000D3E70120C4E790DF7047A5DF7047B5DF13
:10B2C000704700007FB51E4B1E4CE41AE4082404AE
:10B2D0000E4603460A4605461B4944F00400FCF7A7
:10B2E00078FB00236A4602A92846ADF80860ADF84D
:10B2F0000A6003930093ADF80430FFF7DCFF0646C5
:10B30000D8B1FDF73DFF44F0010403460F492A463A
:10B310002046FCF75EFBBDF80020BDF8023052EA83
:10B32000030103D00A492046FCF753FBBDF8042073
:10B330001AB108492046FCF743FB304604B070BD03
:10B34000B4D502001CD60200A8DF0200D7DF02003D
:10B3500021E0020060E002002DE9F047868886B017
:10B3600005460C4626BB0388242B00F0CD8022D84E
:10B37000112B00F09B80232B00F0FC80102B59D068
:10B38000A37AABB1E1880020FFF797FF03460028BE
:10B3900040F0038189488A4D8A492D1AED084FF4FF
:10B3A00080722D04628145F00400E288FCF711FBF5
:10B3B00006B0BDE8F0873A2B00F08180552BDFD135
:10B3C0007E4B7F4DC7888049ED1AED082D0445F06E
:10B3D00004003B4632460390FCF7FBFAE3887B49C6
:10B3E0000398A672172F3A4638BF17229A4228BFF1
:10B3F0001A4622810096FCF7F6FAE1883046FFF7FC
:10B400005EFF38B1FDF7BCFE7149024645F0010010
:10B41000FCF7D6FAE37A002BB2D12369002BAFD028
:10B4200040F6772204922289ADF8142004A9204620
:10B430009847A5E70B790B73C37B012B20D0022B18
:10B4400021D0E2882389934212D25C4B5C4D614942
:10B45000ED1AED082D0445F0040630460023FCF7F4
:10B46000B8FAE1880020FFF728FF70B90123E372E2
:10B47000217B637B8B4283D20020FFF723FF7FE792
:10B480000B88E380DDE74B88FBE7112807D1012318
:10B490005149A37200223046FCF792FAE8E7FDF723
:10B4A0006FFE4E49024645F00100F5E7F723CB80D9
:10B4B00017230B8141F6FB334E818B8160E7428974
:10B4C000CB883F489A4228BF1A463C4BC01A172ADD
:10B4D0004FEAD00038BF172200040A8133464049A2
:10B4E00040F00400FCF775FA236953B1E27A42B1E7
:10B4F00040F6772204922289ADF8142004A9204650
:10B500009847002363813BE7B0F80890B0F80AA0A1
:10B510008789B0F80E80027A284B29484A73C01AEE
:10B52000C0080004334640F004002E490390FCF7A5
:10B5300050FA2D4903985246FCF742FA2B490398DA
:10B540004A46FCF73DFA2A4903984246FCF738FA86
:10B55000284903983A46FCF733FA2369002B3FF455
:10B560000FAF4DF67A220492627B8DF815608DF84C
:10B5700014205BE7077A114B11481F49C01AC00815
:10B58000000440F004003B463246FCF722FA217BDF
:10B59000A888B94228BF39466FE711283FF408AFA1
:10B5A000FDF7EEFD064B0D49024604481B1ADB0869
:10B5B0001B0443F00100FCF703FAF9E6B4D50200DE
:10B5C0001CD6020009E30200B1E10200EBE1020037
:10B5D0002AE20200B6E00200F3E0020045E10200C8
:10B5E00076E1020059E2020088E202009AE20200DB
:10B5F000ACE20200BCE20200CCE202008ADF70474B
:10B600008BDF70478CDF704730B5037A89B0044612
:10B610000D4653B3837C0193FFF7F2FF1422002100
:10B6200003A801F021FC04F10A02019B04F11401BA
:10B63000A81CFFF7E7FF0E4B0E4905460E481B1AE4
:10B64000DB081B0443F004000190FCF7B5F9052367
:10B650000A4901988DF80C302A460495FCF7B0F998
:10B660001DB1636A0BB103A8984709B030BD00BF94
:10B670000CD6020066E30200B4D5020071E30200BA
:10B6800010B5C8B1C2B1032918D10479C4B9018871
:10B69000138899420ED0012303711368036009488F
:10B6A000094B12880949C01AC008000440F0040080
:10B6B000FCF786F9204600E00E2010BD0720FCE7CD
:10B6C0000420FAE70CD60200B4D5020087E302009A
:10B6D00050B1CB060AD011F0040116BF012341710D
:10B6E00043718271002070470E2070470720704719
:10B6F000007DC0F3C0007047F8B50D460446002831
:10B7000052D042620021082201F0AEFB002D38D059
:10B710002B7923722B7BA3742B68FBB104F11402E9
:10B7200003F1080718685968164603C60833BB4278
:10B730003246F7D1186830609B88B380AA68C2B1DE
:10B740001368C4F80A305368C4F80E3004F12803B3
:10B75000A3641F23A4F84C300020F8BD636903F0F4
:10B76000E30343F4200343F4827363615023A36132
:10B77000E4E7062363811823E3604FF4C873238250
:10B78000E4E76369257203F0E30343F4200343F421
:10B79000827363615023A361062363811823E360EE
:10B7A0004FF4C8732382D1E70E20D6E730B50446A4
:10B7B00087B088B31422002101A801F055FBFFF7E0
:10B7C0001FFF2046FFF794FF30B1636A23B10122C7
:10B7D0008DF8042001A8984704F1480104F11400F1
:10B7E000FFF70CFF0D4B04460D481B1ADB0834F025
:10B7F00008054FEA034009D00A49224640F00100FB
:10B80000FCF7DEF82546284607B030BD064940F073
:10B810000400FCF7D1F8F6E70E25F4E70CD6020099
:10B82000B4D502009FE30200C3E302002DE9F04F0C
:10B8300007468BB037F8083B1B2B06460C4600F03A
:10B8400094801D2B16D0102B32D1142200210DEB29
:10B85000020001F009FB06238DF81430B388ADF81F
:10B860001C3004F114030993636A0697002B40F01F
:10B870009A801DE0142200210DEB020001F0F4FA81
:10B8800004F1140320460993FFF732FF04F1480A3C
:10B8900088B102238DF8143005A8636A069798478B
:10B8A00051460020FFF7AAFE39462046FFF7ACFEBE
:10B8B0000BB0BDE8F08F94F8058094F80690B8F1CD
:10B8C000000F45D094F804B0B18C224604EB8B03F2
:10B8D000054693420CD1B9F1000F18D0AB4518D1F1
:10B8E0009DF81C3043F004038DF81C30012313E055
:10B8F000306A0191CDE90223FFF790FCDDE90112E6
:10B90000039B00B30135EDB2B9F1000F1ED1002D3C
:10B91000E6D14FF00008434601220697B9F1000F27
:10B9200019D09A421DD100238DF814303946204693
:10B93000FFF76AFE636A0BB105A8984751460020DD
:10B94000FFF75CFEB4E7B9F1000FC7D10432C0E7DE
:10B9500043464246E1E7B8F1000F02D08DF814905B
:10B96000E4E703238DF81430E4E7142200210DEB03
:10B97000020001F079FA337A012B99D10B4B0C4874
:10B980000C49C01AC008000440F00400FCF714F889
:10B99000636A002B8CD004228DF814201434327A80
:10B9A00009948DF8182005A8984781E7B4D50200BE
:10B9B0000CD60200CCE3020010DF704713B504463A
:10B9C00009496846FDF782FB019808B902B010BD2D
:10B9D000D0E900212046904718B16846FDF780FB6A
:10B9E000F2E71120F2E700BF00E4020013B50446BD
:10B9F00007496846FDF76AFB019B0BB902B010BD11
:10BA00002046D3E9002190476846FDF769FBF3E73C
:10BA100018E402000B4991F816335A09EC2313413C
:10BA2000DB0706D5084B9A683AB94FF480030B60E0
:10BA3000704742F20200FCF7FBBA1A6842F4800237
:10BA40001A60704700E100E058310020F7B5194F47
:10BA50003C7864BB184E012520463570FFF7AEFFD9
:10BA6000112821D02046FFF7C1FF144B8DF8034069
:10BA7000186801900DF10300FCF708FE104901A8B9
:10BA8000FFF79AFF0446B0FA80F0400938709DF83D
:10BA90000300FCF71FFE3CB90A4B34701C70FFF723
:10BAA000B9FF2846FFF7A2FF204603B0F0BD0824E7
:10BAB000FAE700BF0149002000490020FCE3020032
:10BAC0004D80020002490020014B1878704700BFEA
:10BAD0000149002007B508496846FDF7F7FA019BC0
:10BAE00013B903B05DF804FBD3E900209047684622
:10BAF000FDF7F6FAF3E700BF0CE40200FFF7EABF38
:10BB000060DF704769DF704761DF704730B5114D06
:10BB1000ADF5017D4FF4FA740DF1020103A8ADF803
:10BB20000240FFF7F1FF70B9294601A8FDF7CEFAF0
:10BB3000029B002BF0D003A8D3E90021904701A875
:10BB4000FDF7CEFAF4E7052801D0FCF771FA0DF500
:10BB5000017D30BDA0E60200024B1B780BB1FFF760
:10BB6000D5BF70470349002030B5054685B00C4667
:10BB7000002900F0B6805C4B0B600C22002101A86C
:10BB800001F072F901238DF8063022688DF8045017
:10BB9000062301A92020ADF80830FFF7B3FF60B1FC
:10BBA000FDF7EEFA514B5249024652481B1ADB0888
:10BBB0001B0443F00100FBF703FF0C22002101A846
:10BBC00001F052F900238DF80530226840F201138C
:10BBD00001A94020ADF80630FFF794FF60B1FDF7F2
:10BBE000CFFA424B4449024642481B1ADB081B0469
:10BBF00043F00100FBF7E4FE0C22002101A801F054
:10BC000033F9F72322688DF8045001A92320ADF8F9
:10BC10000630FFF777FF60B1FDF7B2FA334B3749D3
:10BC2000024634481B1ADB081B0443F00100FBF7F3
:10BC3000C7FE0C22002101A801F016F9012022689C
:10BC40008DF8040001A9FFF75DFF60B1FDF798FAD8
:10BC5000264B2B49024627481B1ADB081B0443F0DE
:10BC60000100FBF7ADFE0C22002101A801F0FCF859
:10BC70004FF4B0632268019301A9A120FFF742FFAE
:10BC800060B1FDF77DFA194B1E49024619481B1A8F
:10BC9000DB081B0443F00100FBF792FE0C2200219D
:10BCA00001A801F0E1F89DF8043022686FF3000369
:10BCB00001A9A0208DF80430FFF724FF034668B1E6
:10BCC000FDF75EFA094B104902460A481B1ADB08C9
:10BCD0001B0443F00100FBF773FE0023184605B078
:10BCE00030BD0E23FAE700BF382A002034D6020008
:10BCF00024E40200B4D502006AE40200B6E40200C3
:10BD0000FDE4020049E502009AE5020073B505462C
:10BD10000668FFF7F5FE2B68B34204461DD91A48A2
:10BD20001A4B1B491B1ADB081B0443F0020001904D
:10BD3000FBF742FE2B68174901983246FBF749FE94
:10BD40004FF080532A68D3F80C31134901989B02B5
:10BD500003F100539A1AFBF733FE2CB90F4B012263
:10BD60001A70204602B070BD2046FDF709FA074B55
:10BD70000B49024604481B1ADB081B0443F0010070
:10BD8000FBF71EFEEDE700BFB4D5020034D602007B
:10BD9000EDE502001CE602004DE60200034900202A
:10BDA00077E602004BDF70471FB50D4C01A8FFF787
:10BDB000F9FF70B9214602A8FDF788F9039B002B13
:10BDC000F4D00198D3E90021904702A8FDF788F943
:10BDD000F4E7052801D0FCF72BF904B010BD00BF33
:10BDE000B8E602002DE9F04F2DED028BADF2BC5DFF
:10BDF000022306AE00F587573D4C8DF814300546FA
:10BE0000B24641F2E10B0D379FED3A8A05EB0B0389
:10BE1000F0EE487AF0EE488A195D13F8012B11FB19
:10BE200002F007EE100AB8EEC77A9F4278EE878AD2
:10BE300007EE101AB8EEC77A77EE877A07EE102A67
:10BE4000B8EEC77A38EE078AE6D167EEA77A17EE22
:10BE5000900A00F02DFD41EC100B00F0D9FD68EECA
:10BE6000087A8DED000B17EE900A00F021FD41ECF1
:10BE7000100B00F0CDFD53EC102B18EE900ACDE91D
:10BE8000022300F015FDDDE9022380468946DDE945
:10BE9000000100F055FB02460B464046494600F0C3
:10BEA000EBFB00F01FFD0C344AF8040BACD1234629
:10BEB00006A901EB8301F6EC017A91ED007AB4EE6C
:10BEC000677AA2B2F1EE10FA04F1010448BF1346FA
:10BED000B4F5B47FECD1ADF8163041F2F80305A803
:10BEE000EB5898470DF2BC5DBDEC028BBDE8F08FBE
:10BEF00020EFFFFF0000000041F2ED020023835419
:10BF000041F2F102835441F2F802815041F2F2020F
:10BF1000835200F58750143000F01AB937B5044643
:10BF200000F587500D461430002100F02BF941F246
:10BF3000F2020023A35241F2F102A35441F2EE02B5
:10BF4000A55441F2ED02A35441F2EF0255B1A354BE
:10BF500003238DF8043041F2F80301A8E358984711
:10BF600003B030BD0123A354FAE741F2F202835A31
:10BF7000B3F5B37F05D80133835241F2EF030122B9
:10BF8000C25441F2F203C05A704700002DE9F34158
:10BF900041F2F4070446204B00EB07081F48C01A83
:10BFA00041F2F205C0080004E35D625B0E4640F01A
:10BFB00004001B49FBF70DFD635BE25D0C2101FBF7
:10BFC0000343134440465E7000F0F4F888B1625BAE
:10BFD00040F267139A420FD141F2ED020123A354BC
:10BFE0008DF804308DF8063041F2F80301A8E358CB
:10BFF000984702B0BDE8F08141F2EE03E35C3BB14B
:10C0000041F2EF030022E25403238DF80430EBE702
:10C010002046FFF7AAFFECE7B4D50200E4D5020002
:10C02000C4E6020038B51B4B04461B48C01AC008C2
:10C0300000040A460D4640F004001849FBF7C0FC16
:10C0400041F2ED03E35CD3B141F2F102A15C4B1C80
:10C05000DBB2012BA35465541BD10023A35441F23E
:10C06000F40041F2E102235C234420449D5400F09B
:10C07000A1F870B12046BDE83840FFF7B3BE41F2E9
:10C08000EF03E35C2BB129462046BDE83840FFF7BB
:10C090007DBF38BDB4D50200E4D50200FBE6020046
:10C0A00041F2F00210B4002484545DF8044BFFF711
:10C0B000B9BF41F2ED03F7B5C55C04467DB141F26D
:10C0C000F8030025C3588DF8005068468DF80250DB
:10C0D000984729462046FFF7A5FF03B0F0BD41F27F
:10C0E000EF03C35C002BF8D041F2F8060127835917
:10C0F0008DF800508DF802706846984741F2F002C2
:10C10000A35C3B44DBB20B2BA35404D82946204646
:10C11000FFF73CFFE1E7A55401A8A3598DF804708F
:10C120008DF80650984741F2EE032046E15CFFF798
:10C13000F5FED2E741F2F202835A2BB1013B835262
:10C1400041F2EF030122C25441F2F203C05A704798
:10C150000B4AD2F8143543F4775343F03E03C2F848
:10C160001435002303704FF0A043D3F8043523F4B3
:10C17000775323F03E0343F47053C2F804357047FD
:10C18000000300500C290FD84FF0A0430170D3F8E2
:10C190000435064A23F4775332F8112023F03E0386
:10C1A0001343034AC2F80435704700BF16E7020084
:10C1B0000003005010B501780131C9B20B2901709C
:10C1C0004FF0000403D8FFF7DDFF204610BD4FF00D
:10C1D000A0430470D3F80435054A23F4775323F0C1
:10C1E0003E0343F47053C2F804350120EEE700BF6C
:10C1F000000300502DE9F0412DED028B124F9FED11
:10C20000138A82B080464FF4B4743E460025D6EDC2
:10C21000007A67EE887A4046FCEEE77A0135CDED8C
:10C22000017A9DF80410FFF73BFF0C2D06F5B4666C
:10C23000EDD1013CA4B20437002CE6D102B0BDEC34
:10C24000028BBDE8F08100BF30E702004096F64166
:10C25000224A23491368F0B583EA4313214C224D47
:10C260000E6883EAD31383EA83532DED028B1360A8
:10C2700022682660074628689FED1C8A3244002405
:10C280002C6002441A4D22F000422E680A601949BF
:10C2900031440A4413444FF4B4722960B3FBF2F5FD
:10C2A00002FB1533144D83B09EB205EB8305D5ED2B
:10C2B000007A67EE887A3846FCEEE77A0134CDEDF5
:10C2C000017A9DF80410FFF7EBFE0C2C05F5B46520
:10C2D000EDD1304603B0BDEC028BF0BD682A0020E2
:10C2E000602A00206C2A0020044900204096F64174
:10C2F000642A0020AB23205430E7020030B591EAD5
:10C30000030F00F18480841A71EB030C05D212191B
:10C3100053EB0C03001B71EB0C0140F2000CCFF649
:10C32000E07C1CEA430F54D0BCEB410F61D90C0DEB
:10C33000A4EB135E31EA0C0141F4801133EA0C03E3
:10C3400043F48013DEF1200C2AD303FA0CF54019D4
:10C3500041F1000122FA0EF5401923FA0EF5694168
:10C3600012FA0CF2CD0208D349085FEA30005FEA06
:10C37000320228BF42F001020134013C5FEA500C56
:10C3800072F1004250F1000051EB04514FF40013E0
:10C3900013EB410F38BF30BD090D0905002030BD3A
:10C3A000BEF1200EBEF1200F1ED223FA0EF5401969
:10C3B00041F10001CEF1200C124218BF012203FA14
:10C3C0000CF52A43CEE711EA5C0F04BF00200021E0
:10C3D00030BD1CEA410F04BF01F00041002030BD18
:10C3E00001F00041002030BD21F4801101EB045127
:10C3F00030BD004218BF41F00101BCEB410F08BF46
:10C4000030BD4FF0FE4141F47801002030BD83F093
:10C410000043841A71EB030E07D28EF0004E001B0E
:10C4200071EB0E01121953EB0E0340F2000CCFF624
:10C43000E07C1CEA430FC6D0BCEB410F72D90C0D57
:10C44000A4EB135EC90241EA5051C00241F0004121
:10C45000DB0243EA5253D20243F00043DEF1200CE8
:10C4600041D312FA0CF522FA0EF203FA0CF542EA65
:10C47000050218BF42F0010223FA0EF3801A994117
:10C48000E30AC4F30A0411F0404F03D418D0013C6E
:10C4900040004941013C23D44205C00A40EA4150D2
:10C4A000C90A51EAC3715FEA500C72F1004250F1BF
:10C4B000000051EB045130BD01002FD00020203C82
:10C4C0000029F9D0B1FA81FCDCF1200E11FA0CF14F
:10C4D00030FA0EF510FA0CF02943A4EB0C04D9E75E
:10C4E0000020D90730BDAEF1200EBEF1200F0DD2D5
:10C4F000CEF1200C03FA0CF533FA0EF32A4318BFE1
:10C5000043F00103C01A61F10001B9E721F00041D5
:10C51000C00A40EA4150C90A01EB045130BD002075
:10C52000002130BD004218BF41F00101BCEB410FBA
:10C530007FF467AFBCEB430F3FF463AF30BD00BF88
:10C54000F0B540F2FF7681EA030C16EA115E1EBFD9
:10C55000B64516EA1355B5425AD021EA465141F480
:10C560008011A1FB024723EA465343F48013AE44F3
:10C57000A0FB03650CF0004C36197D41A1FB03477D
:10C5800047F10003A0FB0217F619654153F10003C0
:10C59000094218BF46F0010640F2FE74B3F5007F71
:10C5A00013D2AEF5806EA6452BD24CEA0331280398
:10C5B00041EA155140EA16503203450872F1004233
:10C5C00050F1000051EB0E51F0BDAEF2FF3EA6451A
:10C5D00017D24CEAC321E80241EA555140EA5650CD
:10C5E000F202450872F1004250F1000051EB0E5189
:10C5F000F0BD0CF0004141F0FE4141F4700100201B
:10C60000F0BD1EEA0E0FF4D50CF000410020F0BD85
:10C6100016EA115F04BF01F000410020004218BF7C
:10C6200041F0010116EA135F04BF03F0004300224A
:10C63000124218BF43F0010306EA1354B44218BF74
:10C640009EEA060F03D00CF000410020F0BD21F05F
:10C65000004123F00043B1EB065F06D8B3EB065F61
:10C6600003D8002918BF002BC3D140F20001C7F640
:10C67000F8710020F0BD00BF2DE9F04391EA030EF0
:10C680000EF0004E40F20007CFF6E07717EA4105C2
:10C690001EBF95EA070F17EA430595EA070F00F05A
:10C6A000A1807F0D17EA135623EA475343F4801302
:10C6B00017EA115521EA475141F48011AD1B05F2EB
:10C6C000FD354FEAD31C1CF1010C4FF00047B7FBBE
:10C6D000FCF77F01A2FB079C0024E3FB07C4DCF10D
:10C6E000000CD9F100097CF1000CA0FB07620020CE
:10C6F000E1FB072000275FEAC628E0FB0987760DEB
:10C7000046EAC226520DF61900277A41E0FB0C6278
:10C710005FEAC823E2FB09375FEA585848EAC628AF
:10C72000760D18EB070800214E41E2FB0C8602EB68
:10C73000C020DA02E6FB09215B0D43EAC8235FEA69
:10C7400058585B18002758EB0708E6FB0C38D10255
:10C75000E8FB0917520D42EAC3225B0DD2190027EC
:10C760007B41E8FB0C2308EBC6265FEAC128E3FB0C
:10C770000987490D41EAC221520DC91942F100024F
:10C78000E3FB0C12470019EB08095CEB010C72EBA0
:10C79000040453EBC62047EB56530026B3F5000FB5
:10C7A0007641AD190236D6F1200910FA09F4F040AD
:10C7B00013FA09F21043F340E40F001943F10003A8
:10C7C000B3F5001F24BF5B08013540F2FE77BD4280
:10C7D00004D24EEA05511944BDE8F0832D4224D518
:10C7E000714626E0004218BF41F00101124218BF15
:10C7F00043F00103B7EB410F2CBFB7EB430F1BE036
:10C80000B7EB410F04BFB7EB430F15E017EA410F39
:10C8100004BF17EA430F0FE017EA410FE0D017EA11
:10C82000430F02D0B7EB430FDAD04EF0FE4141F494
:10C8300070010020BDE8F08340F20001C7F6F871F6
:10C84000F7E700BF4FF4001C1CEB410F98BF1CEB37
:10C85000430F0CD850EA410C08BF52EA430C08D0F1
:10C86000904208BF99420CBF012000207047002071
:10C8700070470120704700BF4FF4001C1CEB410FB4
:10C8800098BF1CEB430F11D851EA030C50EA4C0C33
:10C890005CEA020C0AD004D29042994180414042A5
:10C8A000704782428B418041404270470020704770
:10C8B000C0F3C75191B142004FEA40704FEAD20134
:10C8C0004FEA310101F16051B2F17F4F38BF70473B
:10C8D00001F1605118BF41F40021704710F0004190
:10C8E0000020704701F000428B1AA3F16051B1F5AE
:10C8F000801F0ADBB1F17F6F09D242EAC102C10099
:10C9000071F1004142EB50707047104670470128AA
:10C910005B4113F5001F04D842F0FE4040F40000D4
:10C920007047C90041EA507040EA020040F48000BC
:10C9300040F08040704700BF51EC100B0128494186
:10C9400011F5001F80414042704700BF70B555ECA3
:10C95000104B0646002210EE100A00232946FFF76E
:10C9600071FF20B1002345EC104B336070BD25F002
:10C97000FF4121F4E00141F07F53C5F30A51224603
:10C9800043F40013A1F2FE3143EC102B316070BD73
:10C990002DE9704355EC104B0646002210EE100AAC
:10C9A00000232946FFF74EFFB8B9C5F30A533344B5
:10C9B00040F2FE72934214DC002EA04601DB002BF5
:10C9C0000FDB002B09DD25F0FF4222F4E00242EAF2
:10C9D000035949EC108BBDE870839FED070BBDE850
:10C9E000708300F0A9F9084B1B6803609FED040BEE
:10C9F000BDE87083AFF3008000000000000000007D
:10CA0000000000000000F07F142D03000000000073
:10CA1000F0B555EC104B83B010EE100A0022002345
:10CA20002946FFF70FFF18B145EC104B03B0F0BDDE
:10CA300045EC104BFFF780FF0028F5D000220023C3
:10CA400020462946FFF718FF002860D145EC104B1F
:10CA500001A8FFF77BFF55EC104B10EE100A33A333
:10CA6000D3E900232946FFF76BFD32A3D3E9002366
:10CA7000FFF744FC06460F4632463B462046294611
:10CA8000FFF7FAFD32463B46FFF738FC41EC100B4E
:10CA90004FF0FF30FFF77CFF57EC106B10EE102AC1
:10CAA0003B4620462946FFF7E7FD32463B46FFF767
:10CAB00025FC41EC100B4FF0FF30FFF769FF57ECFE
:10CAC000106B10EE102A20463B462946FFF7D4FD96
:10CAD0003B463246FFF712FC41EC100B4FF0FF30A3
